:100000000C942D0E0C945A0E0C945A0E0C945A0EFD
:100010000C945A0E0C945A0E0C945A0E0C945A0EC0
:100020000C945A0E0C945A0E0C945A0E0C945A0EB0
:100030000C945A0E0C94B5D20C945A0E0C945A0E81
:100040000C945A0E0C945C760C945A0E0C945A0E26
:100050000C945A0E0C945A0E0C94D77F0C94F4CE38
:100060000C945A0E0C947B260C945A0E0C945A0E37
:100070000C945A0E0C945A0E0C945A0E0C945A0E60
:100080000C945A0E0C945A0E0C945A0E0C945A0E50
:100090000C945A0E0C945A0E0C945A0E0C947BCB62
:1000A0000C945A0E0C945A0E0C945A0E0C945A0E30
:1000B0000C945A0E0C945A0E0C945A0E0C945A0E20
:1000C0000C945A0E0C945A0E0C945A0E0C945A0E10
:1000D0000C945A0E0C945A0E0C945A0E0C945A0E00
:1000E0000C945A0E084AD73B3BCE016E84BCBFFD30
:1000F000C12F3D6C74319ABD56833DDA3D00C77FF8
:1001000011BED9E4BB4C3E916BAAAABE0000008090
:100110003F05A84CCDB2D44EB93836A9020C50B91F
:10012000918688083CA6AAAA2ABE000000803F4DFE
:10013000383420582059205A2045006563686F3AAA
:100140000043616E6E6F7420656E74657220737506
:10015000626469723A20004D3234004D32332025FA
:1001600073006175746F25692E67004572726F7236
:100170003A006572726F722077726974696E6720D7
:10018000746F2066696C65004E6F74205344207054
:1001900072696E74696E67002F0053442070726933
:1001A0006E74696E67206279746520002E00446564
:1001B0006C6574696F6E206661696C65642C20469D
:1001C000696C653A200046696C652064656C6574ED
:1001D00065643A002E006F70656E206661696C651B
:1001E000642C2046696C653A200057726974696E08
:1001F0006720746F2066696C653A20002E006F706E
:10020000656E206661696C65642C2046696C653A90
:1002100020002E006F70656E206661696C65642C2D
:100220002046696C653A200046696C652073656CF0
:100230006563746564002053697A653A20004669F5
:100240006C65206F70656E65643A20002E006F70DB
:10025000656E206661696C65642C2046696C653A40
:1002600020004E6F772066726573682066696C6542
:100270003A20004E6F7720646F696E672066696C64
:10028000653A20002220706F730022207061726531
:100290006E743A2200535542524F5554494E4520F0
:1002A00043414C4C207461726765743A2200747249
:1002B00079696E6720746F2063616C6C207375625E
:1002C0002D67636F64652066696C65732077697458
:1002D0006820746F6F206D616E79206C6576656C37
:1002E000732E204D4158206C6576656C2069733AF9
:1002F0000053442063617264206F6B006F70656E01
:10030000526F6F74206661696C656400766F6C75FE
:100310006D652E696E6974206661696C6564005351
:100320004420696E6974206661696C006563686F5A
:100330003A0048617264636F646564204465666175
:10034000756C742053657474696E6773204C6F61AB
:10035000646564002044002049002020204D333093
:10036000312050005049442073657474696E67737E
:100370003A00205A0020590020204D3230362058B3
:1003800000486F6D65206F666673657420286D6D1B
:10039000293A00204500205A002058002042002021
:1003A000540020204D323035205300416476616E78
:1003B000636564207661726961626C65733A20538B
:1003C0003D4D696E20666565647261746520286DB7
:1003D0006D2F73292C20543D4D696E207472617607
:1003E000656C20666565647261746520286D6D2F8B
:1003F00073292C20423D6D696E696D756D207365A2
:10040000676D656E742074696D6520286D73292C85
:1004100020583D6D6178696D756D205859206A6569
:10042000726B20286D6D2F73292C20205A3D6D6131
:1004300078696D756D205A206A65726B20286D6D24
:100440002F73292C2020453D6D6178696D756D20D5
:1004500045206A65726B20286D6D2F73290020542A
:100460000020204D323034205300416363656C65B9
:10047000726174696F6E3A20533D616363656C65A8
:10048000726174696F6E2C20543D72657472616381
:100490007420616363656C65726174696F6E0020BE
:1004A0004500205A0020590020204D32303120587C
:1004B000004D6178696D756D20416363656C65728F
:1004C0006174696F6E20286D6D2F7332293A002098
:1004D0004500205A0020590020204D32303320584A
:1004E000004D6178696D756D206665656472617433
:1004F000657320286D6D2F73293A00204500205A1E
:100500000020590020204D39322058005374657066
:10051000732070657220756E69743A006563686F48
:100520003A004572726F723A0053544F505045442E
:100530002E20005072696E7465722073746F707033
:1005400065642064756520746F206572726F7273C4
:100550002E2046697820746865206572726F72205B
:10056000616E6420757365204D39393920746F20B0
:10057000726573746172742E202854656D70657293
:1005800061747572652069732072657365742E20BD
:100590005365742069742061667465722072657396
:1005A00074617274696E6729004B494C4C45442E46
:1005B00020005072696E7465722068616C746564A5
:1005C0002E206B696C6C28292063616C6C6564213A
:1005D000006F6B00526573656E643A20002200550F
:1005E0006E6B6E6F776E20636F6D6D616E643A2017
:1005F00022004368616E67652066696C616D656E97
:1006000074005A204F6666736574203A20007A5F42
:100610006D61783A20007A5F6D696E3A20005A2049
:100620004F6666736574005A204F66667365742062
:100630006F6B007A5F6D61783A20007A5F6D696E4A
:100640003A2000795F6D61783A2000795F6D696EBC
:100650003A2000785F6D61783A2000785F6D696EAE
:100660003A2000205A3A0020593A0020436F756E14
:100670007420583A200020453A00205A3A00205968
:100680003A00583A004649524D574152455F4E4153
:100690004D453A4D61726C696E2056313B20537066
:1006A00072696E7465722F6772626C206D61736817
:1006B000757020666F722067656E36204649524D10
:1006C000574152455F55524C3A68747470733A2FD3
:1006D0002F6769746875622E636F6D2F4572696B41
:1006E0005A616C6D2F4D61726C696E2F2050524FA4
:1006F000544F434F4C5F56455253494F4E3A312E5B
:1007000030204D414348494E455F545950453A4D7C
:10071000656E64656C2045585452554445525F439C
:100720004F554E543A3120555549443A30303030C7
:10073000303030302D303030302D303030302D30C2
:100740003030302D303030303030303030303030AC
:100750000A004D656E64656C204F66662E004D651F
:100760006E64656C2072656164792E004265642058
:10077000646F6E652E0020423A0020453A00543ADC
:10078000004265642048656174696E672E004865A3
:100790006174696E6720646F6E652E0020573A00A1
:1007A00020453A00543A0048656174696E672E2E00
:1007B0002E002042403A0020403A00202F003A000C
:1007C000205400202F0020423A00202F006F6B2081
:1007D000543A002569206D696E2C202569207365C7
:1007E0006300456E642066696C65206C69737400F3
:1007F000426567696E2066696C65206C6973740078
:100800004E6F206D6F76652E004D656E64656C20B1
:1008100072656164792E00526573756D696E67202B
:100820007072696E74005761697420666F7220750A
:100830007365722E2E2E00536C6565702E2E2E0061
:10084000FFFFFF00005243000087430000484300C1
:1008500000A0400000A04000000040000000000098
:100860000000000000000000000000000000000088
:100870000000000000524300008743000048432569
:100880006920686F757273202569206D696E7574B3
:10089000657300446F6E65207072696E74696E676F
:1008A0002066696C650053544F505045442E20001B
:1008B0005072696E7465722073746F707065642015
:1008C00064756520746F206572726F72732E204696
:1008D000697820746865206572726F7220616E6439
:1008E00020757365204D39393920746F2072657316
:1008F000746172742E202854656D70657261747510
:1009000072652069732072657365742E2053657457
:1009100020697420616674657220726573746172F7
:1009200074696E6729006F6B004E6F204C696E65AD
:10093000204E756D62657220776974682063686502
:10094000636B73756D2C204C617374204C696E65FC
:100950003A20004E6F20436865636B73756D207796
:10096000697468206C696E65206E756D6265722CA5
:10097000204C617374204C696E653A200063686591
:10098000636B73756D206D69736D617463682C2082
:100990004C617374204C696E653A20004C696E6539
:1009A000204E756D626572206973206E6F74204CE5
:1009B000617374204C696E65204E756D6265722B93
:1009C000312C204C617374204C696E653A20004DC7
:1009D00031313000446F6E6520736176696E672037
:1009E00066696C652E006F6B004D32390020205017
:1009F0006C616E6E65724275666665724279746589
:100A0000733A20002046726565204D656D6F7279DE
:100A10003A20004A756C20203120323031360043B4
:100A20006F6D70696C65643A2000286E6F6E652C7E
:100A30002064656661756C7420636F6E66696729F2
:100A400000207C20417574686F723A20004A756CF2
:100A500020203120323031362031343A35343A34A6
:100A60003000204C61737420557064617465643A81
:100A70002000312E302E30004D61726C696E0020E6
:100A8000536F6674776172652052657365740020D8
:100A90005761746368646F672052657365740020E2
:100AA00042726F776E206F757420526573657400A3
:100AB0002045787465726E616C20526573657400B0
:100AC000506F776572557000737461727400220004
:100AD000656E717565696E672022002200656E7112
:100AE0007565696E672022006563686F3A0020743F
:100AF0006F6F206C6F6E6720657874727573696FA5
:100B00006E2070726576656E7465640020636F6C2C
:100B10006420657874727573696F6E207072657683
:100B2000656E746564007C3C3E5E2B3D3F2F5B5DD3
:100B30003B2C2A225C0045303A20005A3A200059CA
:100B40003A2000583A20004D53312C4D533220505A
:100B5000696E730A0024F404D9201BC40C5C0E983F
:100B600004C4095F0265077101F405F900FB04B3D1
:100B70000048048700C1036900580355000303457A
:100B800000BE023A008402310053022A00290225E5
:100B90000004022000E4011C00C8011900AF011785
:100BA000009801140084011300710110006101100C
:100BB0000051010E0043010D0036010B002B010B0B
:100BC0000020010B00150109000C010900030108B8
:100BD00000FB000800F3000800EB000700E400063B
:100BE00000DE000600D8000600D2000600CC00059A
:100BF00000C7000500C2000500BD000400B90004E4
:100C000000B5000400B1000400AD000400A9000418
:100C100000A5000300A20003009F0004009B000346
:100C20000098000300950002009300030090000369
:100C3000008D0002008B0003008800020086000285
:100C40000084000300810002007F0002007D00029A
:100C5000007B0002007900020077000100760002AC
:100C6000007400020072000100710002006F0002B7
:100C7000006D0001006C0002006A000100690002C2
:100C800000670001006600010065000100640002C9
:100C9000006200010061000100600001005F0002CD
:100CA000005D0001005C0001005B0001005A0001D2
:100CB00000590001005800010057000100560001D2
:100CC00000550001005400010053000000530001D2
:100CD000005200010051000100500001004F0001CE
:100CE000004E0000004E0001004D0001004C0001CC
:100CF000004B0000004B0001004A000100490001C8
:100D000000480000004800010047000100460000C4
:100D100000460001004500000045000100440001BC
:100D200000430000004300010042000000420001B7
:100D3000004100000041000100400001003F0000B0
:100D4000003F0001003E0000003E0001003D0000A9
:100D5000003D0001003C0000003C0000003C0001A0
:100D6000003B0000003B0001003A0000003A000197
:100D70000039000000390001003800000038000090
:100D80000038000100370000003700010036000085
:100D9000003600000036000100350000003500007C
:100DA0000035000100340000003400000034000170
:100DB0000033000000330000003300010032000067
:100DC000003200000032000100310000003100005C
:100DD0000031000100300000003000000030000150
:100DE000002F0000002F0000002F0000002F000146
:100DF000002E0000002E0000002E0001002D00003B
:100E0000002D0000002D0000002D0001002C00002E
:100E1000002C0000002C0000002C0001002B000022
:100E2000002B0000002B0000002B0001002A000016
:100E3000002A0000002A0000002A0001002900000A
:100E400000290000002900000029000000290001FD
:100E500000280000002800000028000000280000F2
:100E600000280001002700000027000000270000E4
:100E700000270000002700010026000000260000D7
:100E800000260000002600000026000100250000CA
:100E900000250000002500000025000000250000BE
:100EA00000250001002400000024000000240000B0
:100EB00000240000002400010023000000230000A3
:100EC0000023000000230000002300000023000096
:100ED0000023000100220000002200000022000088
:100EE000002200000022000000220001002100007A
:100EF000002100000021000000210000002100006E
:100F0000002100000021000100200000002000005E
:100F10000020000000200000002000000020000051
:100F20000020000000200001001F0000001F000042
:100F3000001F0000001F0000001F0000001F000035
:100F4000001F0001001E0000001E0000001E000027
:100F5000001E00000024F4D43050C38E20C2A240F2
:100F600017828B7011127A910D816CD90AA861E1F8
:100F700008C7586607615143061E4B5D05C145A76A
:100F8000041A411104093D9803713931034036DBDD
:100F90000265339102D4305402802E1D02632CEE80
:100FA00001752AC501B028A001102781018F256491
:100FB000012B244B01E0223401AC211F018D200DB7
:100FC00001801FFC00841EED00971DDF00B81CD2BD
:100FD00000E61BC600201BBC00641AB200B219A8B0
:100FE000000A19A0006A189900D117910040178BC8
:100FF00000B516840031167E00B31579003A1573DA
:1010000000C7146F0058146A00EE1366008813635B
:101010000025135E00C7125B006C125700151254B6
:1010200000C111510070114F0021114B00D6104921
:10103000008D1047004610440002104200C00F40CF
:1010400000800F3E00420F3C00060F3B00CB0E38E5
:1010500000930E37005C0E3500270E3400F30D327E
:1010600000C10D3100900D3000600D2E00320D2DAD
:1010700000050D2C00D90C2B00AE0C2900850C2985
:10108000005C0C2700350C27000E0C2600E80B2412
:1010900000C40B2400A00B23007D0B23005A0B215E
:1010A00000390B2100180B2000F80A1F00D90A1E76
:1010B00000BB0A1E009D0A1D00800A1D00630A1C59
:1010C00000470A1B002C0A1B00110A1A00F7091A14
:1010D00000DD091900C4091900AB091900920917AC
:1010E000007B091800630917004C09160036091621
:1010F00000200916000A091500F5081500E008147B
:1011000000CC081400B8081400A4081400900813B8
:10111000007D0812006B08130058081200460812E0
:1011200000340811002308110012081100010811F1
:1011300000F0071000E0071000D0071000C00710F3
:1011400000B0070F00A107100091070E0083070FE2
:101150000074070F0065070E0057070E0049070EC1
:10116000003B070D002E070E0020070D0013070D92
:101170000006070D00F9060C00ED060D00E0060C58
:1011800000D4060C00C8060C00BC060C00B0060C0F
:1011900000A4060B0099060C008D060B0082060BBE
:1011A0000077060B006C060B0061060A0057060B61
:1011B000004C060A0042060A0038060A002E060AFB
:1011C0000024060A001A060A001006090007060A8B
:1011D00000FD050900F4050900EB050900E2050919
:1011E00000D9050900D0050900C7050900BE050999
:1011F00000B5050800AD050800A50509009C050817
:1012000000940508008C050800840508007C05088A
:1012100000740508006C050700650508005D0507FA
:1012200000560508004E0507004705070040050861
:101230000038050700310507002A050700230507C8
:10124000001C050600160507000F05070008050627
:101250000002050700FB040600F5040700EE040683
:1012600000E8040600E2040700DB040600D50406DB
:1012700000CF040600C9040600C3040600BD04062E
:1012800000B7040600B1040500AC040600A604067D
:1012900000A00405009B04060095040500900406C8
:1012A000008A04050085040500800406007A040510
:1012B0000075040500700405006B04050066040554
:1012C00000610405005C0405005704050052040594
:1012D000004D04050048040500430405003E0404D5
:1012E000003A04050035040500300404002C040510
:1012F0000027040400230405001E0404001A04044B
:101300000016040500110404000D0404000904057E
:10131000000404040000040400FC030400F80304B7
:1013200000F4030400F0030400EC030400E80304E9
:1013300000E4030400E0030400DC030400D8030419
:1013400000D4030400D0030400CC030400C803034A
:1013500000C50303006563686F3A00656E647374CB
:101360006F7073206869743A205A00205A3A0065F9
:101370006E6473746F7073206869743A205900202A
:10138000593A00656E6473746F7073206869743ABB
:1013900020580020583A00656E6473746F70732093
:1013A0006869743A20004572726F723A0045727231
:1013B0003A204D415854454D502042454400546513
:1013C0006D706572617475726520686561746564BD
:1013D00020626564207377697463686564206F6652
:1013E000662E204D415854454D50207472696767F0
:1013F00065726564202121004572723A204D494E84
:1014000054454D50003A20457874727564657220D9
:101410007377697463686564206F66662E204D4932
:101420004E54454D5020747269676765726564203B
:1014300021004572723A204D415854454D50003AB2
:101440002045787472756465722073776974636877
:101450006564206F66662E204D415854454D5020DE
:10146000747269676765726564202100202D2049C8
:101470006E76616C6964206578747275646572203B
:101480006E756D6265722021001000600350012CA2
:101490000190012201D001180110020E0170020416
:1014A00001E002FA006003F0000004E600B004DC92
:1014B00000A005D200B006C8000008BE00A009B414
:1014C00000800BAA00D00DA00090109600C0138CD5
:1014D0000070178200901B780010206E00C02464FA
:1014E00000E02D500080353C00A03A2800A03D14BB
:1014F00000003F0000A03FECFF50494420417574BC
:101500006F74756E652066696E6973686564212005
:1015100050757420746865206C617374204B702C56
:10152000204B6920616E64204B6420636F6E73747E
:10153000616E74732066726F6D2061626F766520D4
:10154000696E746F20436F6E666967757261746946
:101550006F6E2E6800504944204175746F74756E2B
:1015600065206661696C6564212074696D656F75BD
:10157000740020403A006F6B20543A006F6B204299
:101580003A00504944204175746F74756E65206649
:1015900061696C6564212054656D70657261747554
:1015A000726520746F6F206869676800204B643A29
:1015B0002000204B693A2000204B703A2000204345
:1015C0006C61737369632050494420002054753A5C
:1015D0002000204B753A2000206D61783A200020D1
:1015E0006D696E3A200020643A20002062696173C0
:1015F0003A20002D2D3A2D2D002D2D2D0053440085
:101600002059000120000120004E6F205344206328
:10161000617264005072696E742066726F6D20533F
:10162000440053746F70207072696E740052657359
:10163000756D65207072696E7400506175736520F8
:101640007072696E7400436F6E74726F6C005072CA
:1016500065706172650054756E6500496E666F2035
:1016600073637265656E00052E2E004D61696E0014
:101670004D3234004D3233202573004D383420581C
:101680002059205A204500526573746F7265206698
:1016900061696C73616665004D6F74696F6E0054AB
:1016A000656D7065726174757265004D61696E007B
:1016B0004573746570732F6D6D0045737465707339
:1016C0002F6D6D005A73746570732F6D6D005A73B2
:1016D000746570732F6D6D005973746570732F6D21
:1016E0006D005973746570732F6D6D005873746558
:1016F00070732F6D6D005873746570732F6D6D006E
:10170000412D7265747261637400412D726574724B
:1017100061637400416D6178206500416D617820DE
:101720006500416D6178207A00416D6178207A0012
:10173000416D6178207900416D6178207900416DBB
:101740006178207800416D6178207800565472618C
:1017500076206D696E005654726176206D696E0058
:10176000566D696E00566D696E00566D6178206524
:1017700000566D6178206500566D6178207A0056BC
:101780006D6178207A00566D6178207900566D6120
:1017900078207900566D6178207800566D61782048
:1017A000780056652D6A65726B0056652D6A657204
:1017B0006B00567A2D6A65726B00567A2D6A6572D7
:1017C0006B005678792D6A65726B005678792D6AB0
:1017D00065726B00416363656C00416363656C0017
:1017E000436F6E74726F6C0050726568656174202F
:1017F00041425320636F6E66005072656865617484
:1018000020504C4120636F6E66005049442D4300C8
:101810005049442D43005049442D44005049442D23
:1018200044005049442D49005049442D4900504935
:10183000442D50005049442D500020022046616341
:10184000740020022046616374002002204D6178FC
:10185000002002204D6178002002204D696E00209A
:1018600002204D696E004F6666004F6E20004F6685
:1018700066004F6E20004175746F74656D70004690
:10188000616E2073706565640046616E20737065DB
:1018900065640042656400426564004E6F7A7A6C4C
:1018A00065004E6F7A7A6C6500436F6E74726F6C70
:1018B0000042656400426564004E6F7A7A6C650090
:1018C0004E6F7A7A6C650046616E20737065656450
:1018D0000046616E2073706565640054656D7065C7
:1018E0007261747572650042656400426564004E01
:1018F0006F7A7A6C65004E6F7A7A6C650046616E1D
:101900002073706565640046616E20737065656460
:101910000054656D7065726174757265004D6F7607
:10192000652061786973004D3830005377697463BE
:101930006820706F776572206F6E004D38310053EC
:10194000776974636820706F776572206F666600D0
:10195000436F6F6C646F776E005072656865617479
:1019600020414253005072656865617420504C41BB
:101970000053657420686F6D65206F6666736574CB
:101980007300473238004175746F20686F6D6500D1
:101990004D38340044697361626C652073746570FE
:1019A00070657273004D61696E004D6F7665203011
:1019B0002E316D6D004D6F766520316D6D004D6F70
:1019C00076652031306D6D00507265706172650012
:1019D0004578747275646572004D6F7665205A00A3
:1019E0004D6F76652059004D6F76652058004D6F1C
:1019F00076652061786973004578747275646572E4
:101A0000005A0059005800507265686561742041A1
:101A100042532042656400507265686561742041DC
:101A200042532031005072657061726500507265DA
:101A30006865617420504C412042656400507265B5
:101A40006865617420504C412031005072657061AE
:101A50007265004D363030004368616E6765206600
:101A6000696C616D656E7400466C6F77203000465E
:101A70006C6F77203000466C6F7700466C6F770094
:101A800046616E2073706565640046616E207370F8
:101A90006565640042656400426564004E6F7A7A51
:101AA0006C65004E6F7A7A6C6500537065656400F2
:101AB0005370656564004D61696E00436172642016
:101AC00072656D6F766564004361726420696E7340
:101AD0006572746564004D333030205336393820D8
:101AE00050323030004D33303020533635392050AD
:101AF0003230300000002100240027002A002D0091
:101B00003000330001010000040107010A01000058
:101B10002200250028002B002E0031003400020195
:101B20000000050108010B01000020002300260031
:101B300029002C002F0032000001000003010601E3
:101B40000901050505050705080808080202020243
:101B50000A0A080804040404010101010101010149
:101B60000303030303030303040707070C0C0C0C14
:101B70000C0C0C0C020202020606060606060606FD
:101B80000B0B0B0B0B0B0B0B01021020200808108A
:101B900020401020408002010201080402010102DD
:101BA00004081020408080402010080402018004B6
:101BB0000201804020100804020108040201010211
:101BC000040810204080010204081020408000001A
:101BD000090A02080B0C0D070603040100000000AF
:101BE00000000000000000000000000000000000F5
:101BF0000000000000000000000011100F000000B5
:101C000000000000000000000000000000000000D4
:101C10000000000002494E46494E4954594E414E7B
:101C2000CDCCCC3D0AD7233C17B7D13877CC2B325B
:101C30009595E6241FB14F0A000020410000C842DC
:101C400000401C4620BCBE4CCA1B0E5AAEC59D743B
:101C50000F27BC293DC2EACAB72911241FBECFEF06
:101C6000D1E2DEBFCDBF00E00CBF14E0A0E0B2E0E7
:101C7000ECEDF6EB01E00BBF02C007900D92A03E29
:101C8000B107D9F71BBE13E1A0EEB4E001C01D926D
:101C9000A736B107E1F71CE1C8E5DCE104C02297F3
:101CA000FE010E9414DBC035D107C9F70E940FD294
:101CB0000C9462DB0C940000A0E0B0E0E2E6FEE0F1
:101CC0000C9431DBEC015B016115710519F0FB012E
:101CD00091838083F9908F2D90E00E9418DB892BEF
:101CE000C9F7FDE2FF1621F4F990EE24E39405C054
:101CF0002BE2F21609F4F990EE248E010150104007
:101D0000C80165E17CE143E050E072D2892BF9F42F
:101D10008E010E5F1F4FC80168E17CE145E050E095
:101D200067D2892B19F48E01095F1F4FA114B104EA
:101D300019F0F50111830083E0FC04C070E090E02D
:101D400080E813C070E090E080E86FEF07C1C80141
:101D50006DE17CE143E050E04BD2892B69F4A114A2
:101D6000B10429F470E090E080EC6FE7F7C02296B0
:101D7000F501D183C083F6CF8824992440E050E058
:101D800060E070E0EF2DE053EA30A0F5F2E0EF2ADA
:101D90008E2D90E09C0128703070E2FE06C0232B4F
:101DA00079F50894811C911C2BC0232B19F0089401
:101DB00081089108DB01CA0112E0880F991FAA1F50
:101DC000BB1F1A95D1F7480F591F6A1F7B1F440F7D
:101DD000551F661F771F4E0F511D611D711D48391C
:101DE00029E9520729E9620729E1720748F084E0EE
:101DF000E82A06C0EE3F31F4E3FC39C098E0E92A56
:101E0000F990C0CFE53311F0E53189F529912D32F4
:101E100019F4E0E1EE2A05C02B3219F081E090E0E0
:101E200003C0299182E090E0E22FE053EA3018F0FD
:101E3000C81BD90B1CC020E030E0FCE020383F0775
:101E40005CF4C901880F991F880F991F280F391F4B
:101E5000220F331F2E0F311DE991E053EA3068F352
:101E6000E4FE03C0309521953F4F820E931ECE2C89
:101E7000DD24E1FE07C0A114B10421F02197F50192
:101E8000D183C083CB01BA010E947DD77B018C0135
:101E9000F3E0CF22DD2423E0C216D10421F417FBA6
:101EA000109517F9109557016801C801B70120E096
:101EB00030E040E050E00E94DDD6882309F44AC0BB
:101EC00097FE0DC024E3E22E2CE1F22E9094819433
:101ED00091089394C0E2D0E000E010E012C09CE4CE
:101EE000E92E9CE1F92EF6CFF70125913591459128
:101EF0005491C601B5010E94BDD95B016C018C1AD9
:101F00009D0A8C169D0684F7D595C7950F5F1F4FC8
:101F10000630110529F08CEF9FEFE80EF91EF1CF86
:101F2000C501D6017C018D018C2D880F8D2D881F58
:101F30008F3F51F0C601B50120E030E040E050E0B5
:101F40000E94DDD6882331F482E290E090936613FC
:101F5000809365137E2D9F2D802F612F272F392F82
:101F6000482F562FB901CA01CDB7DEB7ECE00C946B
:101F70004DDB2F923F925F926F927F928F929F9252
:101F8000AF92BF92CF92DF92EF92FF920F931F9387
:101F9000CF93DF938C011B01EA016115710519F0E4
:101FA000FB0191838083209749F0CE0102978397AC
:101FB00028F020E030E040E050E0F6C0F801A190C9
:101FC0008F018A2D90E00E9418DB892BB9F7FDE282
:101FD000AF1631F4F801A1908F015524539407C036
:101FE000FBE2AF1619F4F801A1908F015524209758
:101FF00019F0C031D105C1F4F0E3AF1679F4F8015E
:102000008081883711F0883549F4F801A1800E5F8E
:102010001F4FF2E05F2AC0E1D0E006C0209721F414
:1020200080E3A816E9F427C0C830D10531F1C930E2
:10203000D10524F4C230D10531F50CC0CA30D10528
:1020400089F0C031D105F9F4C12CD12CE12CB8E0D4
:10205000FB2E28C0C12CD12CE12CA0E4FA2E22C0EA
:10206000CAE0D0E0FCECCF2EFCECDF2EFCECEF2E37
:10207000FCE0FF2E17C0C8E0D0E0C12CD12CE12C31
:10208000E0E1FE2E0FC09E01442737FD4095542FFE
:1020900060E070E080E090E80E94D5DAC901DA01E2
:1020A0006C017D0120E030E040E050E060E03E0166
:1020B000882477FC8094982C70EDB72EBA0CE9E058
:1020C000EB1570F48A2D81548A3118F499ECB92EED
:1020D00006C08A2D81568A3150F589EAB82EBA0C8D
:1020E0008B2D90E08C179D0714F56F3FE1F0C21621
:1020F000D306E406F506B0F0CA01B901A4019301C4
:102100000E948FDA9B01AC012B0D311D411D511D29
:102110002130F0E03F07F0E04F07F0E85F0710F4F0
:1021200061E001C06FEFF801A1908F01C5CF2114CC
:10213000310481F0662331F001501040F101118328
:10214000008308C051FE1AC002501040F1011183F3
:10215000008314C067FF12C050FC05C02FEF3FEF93
:102160004FEF5FE704C020E030E040E050E882E25B
:1021700090E0909366138093651316C050FE08C0DC
:1021800050954095309521953F4F4F4F5F4F0CC074
:1021900057FF0AC082E290E0909366138093651324
:1021A0002FEF3FEF4FEF5FE7B901CA01DF91CF910A
:1021B0001F910F91FF90EF90DF90CF90BF90AF9065
:1021C0009F908F907F906F905F903F902F90089599
:1021D000FB01DC0105900D920020E1F70895FC0160
:1021E00005900020E9F7809590958E0F9F1F089528
:1021F000FB01DC014150504088F08D9181341CF08E
:102200008B350CF4805E659161341CF06B350CF4F9
:10221000605E861B611171F3990B0895881BFCCFDA
:10222000FB01DC014150504048F005900D92002028
:10223000C9F701C01D9241505040E0F70895FB01DD
:1022400055915523A9F0BF01DC014D91451741116E
:10225000E1F759F4CD010590002049F04D9140156A
:102260004111C9F3FB014111EFCF81E090E00197EB
:102270000895FB01DC0104C08D910190801921F4C7
:1022800041505040C8F7881B990B0895FB01DC01B1
:1022900002C001900D9241505040D8F70895FB01C3
:1022A000DC010D900020E9F7119701900D920020BC
:1022B000E1F70895FC018191861721F08823D9F771
:1022C000992708953197CF010895FB01DC018D9185
:1022D000019080190110D9F3990B0895FB01DC01DD
:1022E00001900D920020E1F70895FB01DC014150BF
:1022F000504030F08D910190801919F40020B9F709
:10230000881B990B0895FB01DC014150504048F0B7
:1023100001900D920020C9F701C01D92415050401C
:10232000E0F70895AEE0B0E0E8E9F1E10C9439DBC4
:102330000E891F898EE08C831A8309838FEF9FE7B4
:102340009E838D839E01265E3F4FCE010196688D50
:10235000798DA9010AD02F813885020F131FF8014A
:1023600010822E96E4E00C9455DBABE0B0E0EBEB92
:10237000F1E10C942BDB3C012B015A01FC0117828B
:102380001682838181FD03C06FEF7FEFB9C19AE0B0
:10239000892E1E010894211C311CF3012381F201B6
:1023A00023FD859123FF81912F01882309F4A5C185
:1023B000853239F423FD859123FF81912F018532E8
:1023C00021F490E0B301B7D1E8CF982FFF24EE2499
:1023D0009924FFE1FF15D0F09B3269F09C3228F47C
:1023E000903259F0933291F40EC09D3249F09033FF
:1023F00069F441E024C052E0F52A84E0F82A28C0BC
:1024000098E0F92A25C0E0E1FE2A22C0F7FC29C0A5
:10241000892F80538A3070F4F6FE05C0989C902C6A
:102420001124980E15C0E89CE02C1124E80EF0E26F
:10243000FF2A0EC09E3229F4F6FC5FC140E4F42A64
:1024400007C09C3619F450E8F52A02C0983649F4C2
:10245000F20123FD959123FF91912F01992309F01A
:10246000B8CF892F8554833018F08052833038F4E8
:1024700044E050E0A40EB51E5FE359830FC09336CD
:1024800031F0933779F0933509F052C01FC0F50150
:102490008081898342E050E0A40EB51E610101E015
:1024A00010E011C0F501C080D180F6FC03C06FEFD1
:1024B0007FEF02C0692D70E042E050E0A40EB51E2F
:1024C000C6012ED18C015FE7F52213C0F501C08053
:1024D000D180F6FC03C06FEF7FEF02C0692D70E082
:1024E00042E050E0A40EB51EC6010FD18C0150E8A9
:1024F000F52AF3FE06C018C080E290E0B3011BD1BC
:10250000EA948E2D90E008171907B0F30DC0F6017C
:10251000F7FC8591F7FE81916F0190E0B3010BD13B
:10252000E110EA94015010400115110581F7E2C055
:10253000943611F0993661F5F7FE08C0F501208157
:1025400031814281538184E090E00AC0F5018081AD
:1025500091819C01442737FD4095542F82E090E003
:10256000A80EB91E9FE6F92257FF09C05095409565
:10257000309521953F4F4F4F5F4FE0E8FE2ACA014B
:10258000B901A1012AE030E002D1D82ED2183FC013
:10259000953729F41F2D1F7E2AE030E01DC01F2D26
:1025A000197F9F3661F0903720F4983509F0A5C067
:1025B0000FC0903739F0983709F09FC004C028E069
:1025C00030E00AC0106114FD146020E130E004C066
:1025D00014FD166020E132E017FF08C0F5016081AC
:1025E00071818281938144E050E008C0F5018081CF
:1025F0009181BC0180E090E042E050E0A40EB51E65
:10260000A101C5D0D82ED2188FE7F82EF122F6FE00
:102610000BC05EEFF522D91438F4F4FE07C0F2FCCB
:1026200005C08FEEF82202C01D2D01C0192DF4FE49
:102630000DC0FE01ED0DF11D8081803319F499EE7E
:10264000F92208C01F5FF2FE05C003C08F2D8678F7
:1026500009F01F5F0F2DF3FC13C0F0FE0EC01E1516
:1026600010F09D2C0AC09D2C9E0C911A1E2D05C0A9
:1026700080E290E0B3015FD01F5F1E15C8F304C075
:102680001E1510F4E11A01C0EE2404FF0EC080E311
:1026900090E0B30150D002FF1BC001FD03C088E7EA
:1026A00090E00EC088E590E00BC0802F867881F026
:1026B00001FF02C08BE201C080E2F7FC8DE290E0F6
:1026C000B30139D005C080E390E0B30134D09A94CF
:1026D000D914C8F3DA94F101ED0DF11D808190E079
:1026E000B30129D0DD20B1F705C080E290E0B3014D
:1026F00022D0EA94EE20C9F750CEF30166817781AB
:10270000CB012B96E2E10C9447DBFC010590615074
:1027100070400110D8F7809590958E0F9F1F0895F7
:10272000FC016150704001900110D8F780959095A0
:102730008E0F9F1F08950F931F93CF93DF938C01EC
:10274000EB018B8181FF1BC082FF0DC02E813F8179
:102750008C819D812817390764F4E881F981019300
:10276000F983E88306C0E885F985802F1995892BC0
:1027700031F48E819F8101969F838E8302C00FEF7B
:102780001FEFC801DF91CF911F910F910895FA01BA
:10279000AA27283051F1203181F1E8946F936E7FA0
:1027A0006E5F7F4F8F4F9F4FAF4FB1E03ED0B4E091
:1027B0003CD0670F781F891F9A1FA11D680F791FD2
:1027C0008A1F911DA11D6A0F711D811D911DA11DE3
:1027D00020D009F468943F912AE0269F11243019F3
:1027E000305D3193DEF6CF010895462F4770405D8E
:1027F0004193B3E00FD0C9F7F6CF462F4F70405D3D
:102800004A3318F0495D31FD4052419302D0A9F797
:10281000EACFB4E0A6959795879577956795BA9591
:10282000C9F700976105710508959B01AC010A2E57
:1028300006945795479537952795BA95C9F7620F2E
:10284000731F841F951FA01D0895FC01128213821F
:102850000895FC018381882311F081E0828308952B
:10286000FC018281811112820895CF93DF93DC01F4
:10287000FC01EB55FE4F808191810097C9F10197D2
:1028800091838083ED01CC5ADF4FFD01ED58FF4F5E
:102890008BE1019009928150E1F7FD01EE5AFF4F63
:1028A000AF58BF4F8D919C911197A157B040918324
:1028B0008083FD01ED58FF4F20E030E0AD014B5526
:1028C0005E4F10C02F5F3F4FEF01DF015F968BE13E
:1028D0000D9009928150E1F7858D968D3297918305
:1028E0008083B196DA018D919C912817390750F3B6
:1028F000DF91CF910895FC018BE794E09183808371
:102900008781882321F0CF0104960C946F68089585
:10291000CF92DF92EF92FF920F931F93DF93CF93AB
:10292000CDB7DEB76F970FB6F894DEBF0FBECDBF41
:102930008C016B01095A1F4FD8018C91075510402B
:10294000882321F42FE2E22EF12C03C090E5E92E3A
:10295000F12CE00EF11E8BE794E09A8389831C82B0
:102960001B8218861D82B7016C5F7F4FCE010596D2
:10297000A60121E00E945B6F882391F5EBE3F1E073
:10298000949108C08091C00085FFFCCF9093C60051
:10299000319694919923B1F7E1E4F1E0949108C064
:1029A0008091C00085FFFCCF9093C6003196949132
:1029B0009923B1F709C08091C00085FFFCCF08942E
:1029C000C11CD11C9093C600F6019081992399F700
:1029D0008091C00085FFFCCF8AE08093C6005AC07A
:1029E000F801EB55FE4F208131812A30310508F086
:1029F00040C02F5F3F4F3183208321503040F90189
:102A000085E0EE0FFF1F8A95E1F7E21BF30BED580F
:102A1000FF4FE00FF11F13C0AF01415E5F4FBF01D9
:102A20008BE1DB010D90BD01DA010D92AD0181500A
:102A3000C1F7929182913296968F858F7F97215020
:102A40003040BFEF2E3F3B0739F7D801AD58BF4F9D
:102A5000F70134968BE101900D928150E1F70F5808
:102A60001F4FF70182819381D8018D939C93015769
:102A70001040D801AC5ABF4FFE0135968BE1019052
:102A80000D928150E1F70E5A1F4F8B819C81F80106
:102A900091838083CE0101962EDF6F960FB6F89456
:102AA000DEBF0FBECDBFCF91DF911F910F91FF9081
:102AB000EF90DF90CF900895EF92FF920F931F93C6
:102AC0008C013EECE32E31E0F32EE80EF91EC70137
:102AD0000E942268C7010E946F68F801108211826B
:102AE0001F910F91FF90EF900895CF92DF92EF9298
:102AF000FF920F931F93CF93DF937C016B01DB0158
:102B00000D900020E9F78D0101501040061B170BB6
:102B1000EEECF1E0EE0EFF1ED7011C92E2E3FEEFB9
:102B2000EE0EFF1ECB016EE470E0C4DBEC010097FB
:102B300031F4F8013197EC0DFD1D86010CC060E207
:102B400070E0B8DB8C010F5F1F4FCE016AE270E0CE
:102B5000B1DBFC0131978DE081838AE082831382AF
:102B6000C70186539E4FB8010E9454708EEC91E0CD
:102B7000E80EF91ED7018C91882319F1EBE6F1E0FC
:102B8000949108C08091C00085FFFCCF9093C6004F
:102B9000319694919923B1F7E2E7F1E0949108C05E
:102BA0008091C00085FFFCCF9093C6003196949130
:102BB0009923B1F78091C00085FFFCCF8AE0809314
:102BC000C600DF91CF911F910F91FF90EF90DF90A2
:102BD000CF900895CF93DF93EC018B81882309F484
:102BE0003BC0EAE9F1E0949108C08091C00085FF04
:102BF000FCCF9093C600319694919923B1F7CD57AD
:102C0000DD4F488159816A817B81C358D24084E677
:102C100095E02AE030E00E94A827E8E9F1E09491ED
:102C200008C08091C00085FFFCCF9093C60031960C
:102C300094919923B1F7C558DD4F488159816A8134
:102C40007B8184E695E02AE030E00E94A82780910D
:102C5000C00085FFFCCF12C0E8E8F1E0949108C005
:102C60008091C00085FFFCCF9093C600319694916F
:102C70009923B1F78091C00085FFFCCF8AE0809353
:102C8000C600DF91CF9108952F923F924F925F92AD
:102C90006F927F928F929F92AF92BF92CF92DF926C
:102CA000EF92FF920F931F93DF93CF93CDB7DEB7D1
:102CB000AC970FB6F894DEBF0FBECDBF5C014B01E1
:102CC000FC018381882309F43BC1C50182539E4FD7
:102CD0000E946F68F50112821A8A1D8A198A188A61
:102CE0008BE794E09F878E875EE4C52ED12CCA0CBB
:102CF000DB1C2FE230E0A20EB31EF601B182A082EF
:102D000021ED3FEFA20EB31EF40180818F3209F056
:102D10008DC0C4016FE270E0CDDA7C010894E11C43
:102D2000F11C3E010894611C711C260142E1242E15
:102D3000312C2C0E3D1E75C0C7016FE270E0BADA6F
:102D40006C01009709F480C0E816F90608F07CC011
:102D50008C010E191F09C301B701A801D4DA060DB1
:102D6000171DF8011082F30107C08091C00085FF94
:102D7000FCCF31969093C60090819923B1F7809152
:102D8000C00085FFFCCFFAE0F093C600F20160813D
:102D900071816115710519F460E070E002C06C5F2B
:102DA0007F4FC101A30121E00E945B6F882371F571
:102DB000E6EDF1E0949108C08091C00085FFFCCF62
:102DC0009093C600319694919923B1F7FE01319604
:102DD00007C08091C00085FFFCCF31969093C6005C
:102DE00090819923B1F7E4EDF1E0949108C08091CE
:102DF000C00085FFFCCF9093C60031969491992333
:102E0000B1F78091C00085FFFCCF94C02EE030E088
:102E10002C0F3D1FF2013183208376010894E11CC1
:102E2000F11CE114F10409F087CF0BC080E590E0BC
:102E3000A80EB91EF601B182A08220EB3FEFA20ED0
:102E4000B31ED82C092D02C0DE2C0F2D8EE490E08D
:102E5000A80EB91EF5018081918122EB3FEFA20EF1
:102E6000B31E009719F480E090E001C004966D2D28
:102E7000702F0E942770882371F1E6ECF1E09491A5
:102E800008C08091C00085FFFCCF9093C6003196AA
:102E900094919923B1F78D2D902F9C01F90107C0D2
:102EA0008091C00085FFFCCF31969093C600908141
:102EB0009923B1F78091C00085FFFCCF8AE0809311
:102EC000C60083E892E0A80EB91EF50110821182B7
:102ED0001282138232C0EEEAF1E0949108C0809130
:102EE000C00085FFFCCF9093C60031969491992342
:102EF000B1F78D2D902F9C01F90107C08091C00082
:102F000085FFFCCF31969093C60090819923B1F74D
:102F1000ECEAF1E0949108C08091C00085FFFCCFFD
:102F20009093C600319694919923B1F78091C00097
:102F300085FFFCCF8AE08093C600CE010E96DBDCD5
:102F4000AC960FB6F894DEBF0FBECDBFCF91DF9128
:102F50001F910F91FF90EF90DF90CF90BF90AF90B7
:102F60009F908F907F906F905F904F903F902F90A9
:102F70000895BF92CF92DF92EF92FF920F931F932B
:102F8000CF93DF938C01EB018FE28993EE24E394DE
:102F9000FF2475EAC72E71E0D72EC00ED11E6FE157
:102FA000B62E14C0FB9CC00111248D589F4F800F7A
:102FB000911FBE010E947F6802C02196E394888120
:102FC000882319F08CE88E15C0F7F3942F2D30E08C
:102FD000F601808191812817390720F3E7FC07C0AB
:102FE000C80182539E4FBE010E947F6801C01882B3
:102FF000DF91CF911F910F91FF90EF90DF90CF90D5
:10300000BF9008952F923F924F925F926F927F925E
:103010008F929F92AF92BF92CF92DF92EF92FF92E8
:103020000F931F93DF93CF93CDB7DEB7AD970FB656
:10303000F894DEBF0FBECDBF6C014B014DA7DC0184
:1030400013968C91882309F448C3E1EDF1E0CE0E8C
:10305000DF1ED6018C91EFE2FEEFCE0EDF1E88233D
:1030600009F418C1222309F0E0C029EE31E0C20EB4
:10307000D31ED6018C91E7E1FEEFCE0EDF1E882332
:1030800071F1EBE6F1E0949108C08091C00085FFFA
:10309000FCCF9093C600319694919923B1F7EEEA54
:1030A000F2E0949108C08091C00085FFFCCF90931E
:1030B000C600319694919923B1F784E695E061E0DA
:1030C00070E04AE050E00E94F7278091C00085FF41
:1030D000FCCF8AE08093C6000E94372AFEC2EBE351
:1030E000F1E0949108C08091C00085FFFCCF9093DF
:1030F000C600319694919923B1F7E5E9F2E09491F5
:1031000008C08091C00085FFFCCF9093C600319627
:1031100094919923B1F7F40107C08091C00085FF15
:10312000FCCF31969093C60090819923B1F7EAE8DD
:10313000F2E0949108C08091C00085FFFCCF90938D
:10314000C600319694919923B1F7C6012EEE31E075
:10315000C20ED31EB6010DDF4BEF5FEFC40ED51EBE
:10316000D6019C91E7E1FEEFCE0EDF1E8DE8989F21
:10317000F0011124E251FE4FEC0DFD1D07C08091BE
:10318000C00085FFFCCF31969093C60090819923B3
:10319000B1F7E4E8F2E0949108C08091C00085FFA7
:1031A000FCCF9093C600319694919923B1F723E810
:1031B00032E0C20ED31ED6014D915D916D917C918E
:1031C000EDE7FDEFCE0EDF1E84E695E02AE030E06D
:1031D0000E94A8278091C00085FFFCCF8AE08093E1
:1031E000C600A60147515E4FDA012C91E22FF0E0B4
:1031F000EE0FFF1FEE0FFF1FEC0DFD1DE651FE4F02
:1032000083E892E0C80ED91ED6014D905D906D9076
:103210007C908DE79DEFC80ED91E4082518262825C
:1032200073822F5FDA012C932FC0EBE3F1E09491CE
:1032300008C08091C00085FFFCCF9093C6003196F6
:1032400094919923B1F7E3E7F2E0949108C080915B
:10325000C00085FFFCCF9093C600319694919923CE
:10326000B1F7F40107C08091C00085FFFCCF319613
:103270009093C60090819923B1F78091C00085FF9B
:10328000FCCF8AE08093C600C60182539E4F0E9405
:103290006F6839C0E9EEF1E0CE0EDF1ED6011C9258
:1032A000E7E1FEEFCE0EDF1EEBE3F1E0949108C004
:1032B0008091C00085FFFCCF9093C6003196949119
:1032C0009923B1F7E2E6F2E0949108C08091C00042
:1032D00085FFFCCF9093C600319694919923B1F766
:1032E000F40107C08091C00085FFFCCF3196909318
:1032F000C60090819923B1F78091C00085FFFCCF73
:103300008AE08093C600D60112961C921A8A1D8A02
:10331000198A188A8BE794E09F878E87FEE4AF2E88
:10332000B12CAC0CBD1CEFE2F0E0CE0EDF1ED501DF
:10333000CD92DC92E1EDFFEFCE0EDF1ED4018C9139
:103340008F3209F090C0C4016FE270E00E945A1100
:103350007C010894E11CF11C3E010894611C711C65
:103360002501E2E12E2E312C2C0E3D1E77C0C70127
:103370006FE270E00E945A115C01009709F481C06D
:10338000E816F90608F07DC08C010E191F09C3016B
:10339000B701A8010E948311060D171DF8011082C4
:1033A000F30107C08091C00085FFFCCF3196909358
:1033B000C60090819923B1F78091C00085FFFCCFB2
:1033C000FAE0F093C600D2016D917C916115710510
:1033D00019F460E070E002C06C5F7F4FC101A3018F
:1033E00021E00E945B6F882371F5EEE4F2E0949196
:1033F00008C08091C00085FFFCCF9093C600319635
:1034000094919923B1F7FE01319607C08091C000D5
:1034100085FFFCCF31969093C60090819923B1F738
:10342000ECE4F2E0949108C08091C00085FFFCCFED
:103430009093C600319694919923B1F78091C00082
:1034400085FFFCCF1BC12EE030E02C0F3D1FF201A9
:103450003183208375010894E11CF11CE114F1040F
:1034600009F085CF0BC040E550E0C40ED51ED50154
:10347000CD92DC92E0EBFFEFCE0EDF1E082DF92C93
:1034800001C00E2DF601E25BFF4F2DA5222309F4AA
:10349000B1C0608171816115710519F460E070E05F
:1034A00002C06C5F7F4FC60182539E4F402F5F2D3D
:1034B00021E00E945B6F882309F46CC04FED51E05E
:1034C000C40ED51ED6014D915D916D917C91ECE9B4
:1034D000F0E0CE0EDF1ED6014D935D936D937C938D
:1034E0001397E5E8FDEFCE0EDF1EEEE3F2E09491D8
:1034F00008C08091C00085FFFCCF9093C600319634
:1035000094919923B1F7802F9F2D9C01F90107C059
:103510008091C00085FFFCCF31969093C6009081CA
:103520009923B1F7E6E3F2E0949108C08091C000DE
:1035300085FFFCCF9093C600319694919923B1F703
:1035400084E695E02AE030E00E94A8278091C00040
:1035500085FFFCCF8AE08093C60023E832E0C20EEC
:10356000D31ED6011D921D921D921C921397E8E264
:10357000F2E0949108C08091C00085FFFCCF909349
:10358000C600319694919923B1F78091C00085FFD0
:10359000FCCF99C0E4E1F2E0949108C08091C000B2
:1035A00085FFFCCF9093C600319694919923B1F793
:1035B000802F9F2D9C01F90107C08091C00085FFDD
:1035C000FCCF31969093C60090819923B1F7E2E148
:1035D000F2E0949108C08091C00085FFFCCF9093E9
:1035E000C600319694919923B1F78091C00085FF70
:1035F000FCCF44C0608171816115710519F460E0F0
:1036000070E002C06C5F7F4FC60182539E4F402F17
:103610005F2D26E50E945B6F882309F033C0EEEF33
:10362000F1E0949108C08091C00085FFFCCF909399
:10363000C600319694919923B1F7802F9F2D9C015C
:10364000F90107C08091C00085FFFCCF31969093AF
:10365000C60090819923B1F7ECEFF1E0949108C096
:103660008091C00085FFFCCF9093C6003196949165
:103670009923B1F78091C00085FFFCCF8AE0809349
:10368000C60028C081E0F6018083EAEEF1E0949163
:1036900008C08091C00085FFFCCF9093C600319692
:1036A00094919923B1F7F40107C08091C00085FF80
:1036B000FCCF31969093C60090819923B1F7809109
:1036C000C00085FFFCCF8AE08093C600802F9F2D2D
:1036D0000E949AC2CE010E960ED9AD960FB6F894FE
:1036E000DEBF0FBECDBFCF91DF911F910F91FF9035
:1036F000EF90DF90CF90BF90AF909F908F907F9092
:103700006F905F904F903F902F900895EF92FF92AF
:103710000F931F93CF93DF93EC010E943B768E01B2
:1037200007511E4FD8018C919EECE92E91E0F92EA5
:10373000EC0EFD1E882399F1C7010E946F68F80105
:103740006081615060838DE8689FB00111246251EF
:103750007E4F6C0F7D1FCE0141E021E053DCD8018C
:10376000EC91F0E0EE0FFF1FEE0FFF1FEC0FFD1FBF
:10377000E651FE4F4081518162817381CD57DD4F0B
:10378000488359836A837B83C358D240C7010E9410
:1037900058678B81882389F181E08A832EC00E943B
:1037A0001876C7010E946F681A828FE291E00E942A
:1037B0002F4D8091710A882301F11092710A809136
:1037C0002808C82FD0E0CC0FDD1FC954DE4E688119
:1037D0007981882777FD8095982F0E947FD7209147
:1037E000CB033091CC034091CD035091CE030E9486
:1037F000EBD8181614F419821882DF91CF911F911B
:103800000F91FF90EF900895FC0181E08183CF013B
:1038100040E021E0F7CBEF92FF920F931F93CF93FD
:10382000DF938C01FC01138286A9882321F0C80153
:10383000C3960E946F6827EAE22E21E0F22EE00E86
:10384000F11EC70164E045E30E941E66882309F566
:10385000EBE3F1E0949108C08091C00085FFFCCFBC
:103860009093C600319694919923B1F7EFE1F3E07C
:10387000949108C08091C00085FFFCCF9093C60052
:10388000319694919923B1F78091C00085FFFCCFC8
:103890007DC0E801C455DE4FCE01B70141E00E9472
:1038A000E570882341F5CE01B70140E00E94E57044
:1038B000882309F5EBE6F1E0949108C08091C000FF
:1038C00085FFFCCF9093C600319694919923B1F770
:1038D000ECE0F3E0949108C08091C00085FFFCCF3C
:1038E0009093C600319694919923B1F78091C000CE
:1038F00085FFFCCF4BC0C801C396BE010E94616B1F
:10390000882309F5EBE6F1E0949108C08091C000AE
:1039100085FFFCCF9093C600319694919923B1F71F
:10392000ECEFF2E0949108C08091C00085FFFCCFDD
:103930009093C600319694919923B1F78091C0007D
:1039400085FFFCCF23C081E0F8018383EBE3F1E046
:10395000949108C08091C00085FFFCCF9093C60071
:10396000319694919923B1F7E1EFF2E0949108C078
:103970008091C00085FFFCCF9093C6003196949152
:103980009923B1F78091C00085FFFCCF8AE0809336
:10399000C600D801AC5ABF4FF801F3968BE10190F5
:1039A0000D928150E1F7F80181A992A90E5A1F4F9B
:1039B000F8019183808302551040C8018F96025B05
:1039C0001F4FF80191838083DF91CF911F910F9159
:1039D000FF90EF9008952F923F924F925F926F92D7
:1039E0007F929F92AF92BF92CF92DF92EF92FF921F
:1039F0000F931F93DF93CF93CDB7DEB7CC55D04055
:103A00000FB6F894DEBF0FBECDBF6C01662311F573
:103A100027E832E0C20ED31ED6018C91E9E7FDEF14
:103A2000CE0EDF1E882309F4E3C02FE732E0C20E7A
:103A3000D31ED601ED90FD900D911C91E1E8FDEFB4
:103A4000CE0EDF1E0E943CCFE616F70608071907C8
:103A500008F4CEC027E832E0C20ED31ED6011C9275
:103A6000E9E7FDEFCE0EDF1ED60113968C91882379
:103A700039F4C601D0DEF6018381882309F4B8C089
:103A800000D000D0EDB7FEB731967E010894E11C5E
:103A9000F11CADB7BEB71296FC92EE92119782E67A
:103AA00091E093838283D6019D968D919C919E9700
:103AB000958384830E9492118701EDB7FEB73696F5
:103AC0000FB6F894FEBF0FBEEDBF57010AC0D80174
:103AD0008C91992787FD90950E9420DBF8018193B6
:103AE0008F01F50101900020E9F73197EA19FB09F0
:103AF000802F8E198E175CF363E3A62EB12CAC0CCD
:103B0000BD1CC50140E050E060E070E00E945867D5
:103B100099245DE3E52EF12CEC0EFD1E2E01089498
:103B2000411C511C4FE1642E712C6C0E7D1E3BE537
:103B3000232E31E0332E42C0D8018C9190E00E94B8
:103B400020DBF80181938F01D7010D900020E9F768
:103B50001197AE19BF09802F8E198A176CF327961B
:103B60008FAD27978E3751F1C701B20145E050E084
:103B70000E947511009711F500D000D0EDB7FEB787
:103B80003196ADB7BEB712967C926E921197338282
:103B90002282558244820E949211EDB7FEB736967A
:103BA0000FB6F894FEBF0FBEEDBFC3010E94A84D33
:103BB00087E591E00E942F4D99249394C501B701A8
:103BC00040E050E00E94806A181614F48701BCCFD0
:103BD000992041F48FEF9FEFD6019E969C938E9390
:103BE0009D9706C0F60185A596A5019696A785A77F
:103BF000C45ADF4F0FB6F894DEBF0FBECDBFCF91D2
:103C0000DF911F910F91FF90EF90DF90CF90BF90C9
:103C1000AF909F907F906F905F904F903F902F90CC
:103C200008952F923F924F925F926F927F928F9260
:103C30009F92AF92BF92CF92DF92EF92FF920F933B
:103C40001F93DF93CF93CDB7DEB7CF58D0400FB6D9
:103C5000F894DEBF0FBECDBF8C013B016A0184E04A
:103C600090E0C80ED91EF8017196C757DF4FF9834F
:103C7000E883C958D040C8010496CA57DF4F9983DA
:103C80008883C658D040C857DF4F1882C858D040E4
:103C9000B6E6EB2EF12CEC0EFD1EF7013B96C55758
:103CA000DF4FF983E883CB58D040A8E88A2EA2E002
:103CB0009A2E800E911EFAE8AF2EF2E0BF2EA00ED3
:103CC000B11EEEE02E2E312C2C0E3D1E77E4472E39
:103CD000512C4C0E5D1EC2010496C357DF4F9983D1
:103CE0008883CD58D040EBE3F1E09491C157DF4F8A
:103CF0009883CF58D0404EC1F7018385482F50E0BC
:103D0000BA01687170706031710509F051C1F40138
:103D1000208131812130310509F44AC12230310539
:103D200009F446C1F701DE0111969081903239F015
:103D30008E2F8E19883011F48EE28D939D933196DB
:103D4000C557DF4F88819981CB58D040E817F907D4
:103D500061F71C921E86F3018081882329F4C1013A
:103D600060E072E00E944F11C101B3010E944F1147
:103D7000C101BE016F5F7F4F0E944F11C10160E022
:103D800072E00E944F111CA61FA61BA61AA68BE765
:103D900094E099A788A7CE018C96B601AE014F5F3B
:103DA0005F4F21E00E945B6F882309F03FC0F40160
:103DB00080819181892BD1F5C157DF4F9881CF58F0
:103DC000D040EBE3F1E008C08091C00085FFFCCF5C
:103DD0009093C600319694919923B1F7E2E0F2E016
:103DE00007C08091C00085FFFCCF31969093C6003C
:103DF00090819923B1F78091C00085FFFCCFFAE054
:103E0000F093C600FE01319607C08091C00085FF87
:103E1000FCCF31969093C60090819923B1F78091A1
:103E2000C00085FFFCCF8AE08093C600C357DF4FF8
:103E3000A881B981CD58D040FE01BC968BE101909C
:103E40000D928150E1F78AA59BA5F20193838283AD
:103E50008BE794E091838083C801B101A201E1DE88
:103E6000C2010E947B14CE0188960E947B1492C0EE
:103E7000953E09F48FC09E3209F48CC09F3509F439
:103E800089C0F8019189992331F09E3209F482C0EA
:103E90009F3509F47FC043FD7DC080E0603171052E
:103EA00009F481E0F80184A7882349F4F7018085AB
:103EB000873409F06FC081858E3709F46BC0CA570B
:103EC000DF4FA881B981C658D040F7018081803288
:103ED00041F08E2F8E19883011F48EE28D938081FF
:103EE0008D933196C557DF4F88819981CB58D0404B
:103EF000E817F90759F71C92F40180819181009726
:103F000029F5F30107C08091C00085FFFCCF3196F1
:103F10009093C60090819923B1F7CA57DF4FE8818B
:103F2000F981C658D04007C08091C00085FFFCCF02
:103F300031969093C60090819923B1F78091C0008B
:103F400085FFFCCFFAE0F093C60024C081309105D4
:103F500039F4F501808191810196918380831AC0A3
:103F60000297C1F4C857DF4FF881C858D0402F2FAF
:103F700030E0F5018081918128173907F1F0C857A9
:103F8000DF4FF881C858D040FF5FC857DF4FF88334
:103F9000C858D040C601B701C757DF4F4881598183
:103FA000C958D0400E94806A18160CF4A5CE05C0EE
:103FB000F7019081992309F05BCFC157DF4F0FB60E
:103FC000F894DEBF0FBECDBFCF91DF911F910F914F
:103FD000FF90EF90DF90CF90BF90AF909F908F9029
:103FE0007F906F905F904F903F902F900895EF9249
:103FF000FF920F931F93DF93CF93CDB7DEB76F97E9
:104000000FB6F894DEBF0FBECDBF7C018C01025B02
:104010001F4F805B9F4FF8019183808328E832E037
:10402000E20EF31E21E030E0F701219331937F018E
:104030001182108226E73DEFE20EF31E049640E067
:1040400050E060E070E00E945867F8012081318103
:10405000DE011596F90134968BE101900D928150A5
:10406000E1F7F901828193819C838B838BE794E054
:104070009A838983C70165E172E08E010F5F1F4F4C
:10408000A801CFDDC8010E947B14F701E657FD4F60
:10409000808191816F960FB6F894DEBF0FBECDBFC1
:1040A000CF91DF911F910F91FF90EF900895EF92C4
:1040B000FF920F931F93DF93CF93CDB7DEB76F9728
:1040C0000FB6F894DEBF0FBECDBF7C018C01025B42
:1040D0001F4F805B9F4FF8019183808328E832E077
:1040E000E20EF31E22E030E0F7013183208328E75F
:1040F0003DEFE20EF31EF701E657FD4F608311829C
:10410000049640E050E060E070E00E945867F801DB
:1041100020813181DE011596F90134968BE1019001
:104120000D928150E1F7F901828193819C838B8309
:104130008BE794E09A838983C70165E172E08E0181
:104140000F5F1F4FA8016DDDC8010E947B146F96A1
:104150000FB6F894DEBF0FBECDBFCF91DF911F9198
:104160000F91FF90EF900895EF92FF920F931F939E
:10417000DF93CF93CDB7DEB76F970FB6F894DEBF5E
:104180000FBECDBF7C0188E892E0E80EF91EF70172
:104190001182108288E79DEFE80EF91E87010D5C01
:1041A0001F4FC80140E050E060E070E00E94586797
:1041B000DE011596F8018BE101900D928150E1F737
:1041C000F70181A992A99C838B838BE794E09A8362
:1041D0008983C70165E172E08E010F5F1F4FA8015F
:1041E00020DDC8010E947B146F960FB6F894DEBFE5
:1041F0000FBECDBFCF91DF911F910F91FF90EF9038
:1042000008950F931F93CF93DF93DC01D3961C92F5
:10421000D397D6961C92D697D2961C921E92D1977F
:104220008BE794E0D0969C938E939F97AC5ABF4FA8
:104230001C9213961C92A755B040FD01E05BFF4F06
:10424000AE5ABF4F11961C921E92A255B040918358
:104250008083ED01C159DF4FFE0120E030E0482F9F
:10426000148217821382128240839183215E3F4F12
:104270007F9681E02633380799F7A855BE4F89E12C
:104280008C9313961C9258961C921B961C92139614
:104290001C92A15DB140FD01E653FE4FA453BE4FF9
:1042A00011961C921E9240839183A155BF4F1D927F
:1042B0001D921D921C92139718961D921D921D928D
:1042C0001C921397A358B24012961C921297139601
:1042D0001C9213971C9211961C9211978D010158F4
:1042E0001D4FF8011082118212821382AB55BE4F0E
:1042F00011961C921E92AC5BBF4F1C92FE01C9012D
:1043000011920197E9F7A256BF4F81E08C93A7580D
:10431000B2409E961C921E929D970E943CCF685779
:104320007C4E8F4F9F4FF80160837183828393830C
:10433000DF91CF911F910F910895DF93CF93CDB768
:10434000DEB7E0970FB6F894DEBF0FBECDBFDE013B
:104350001196EBE2F4E080E101900D928150E1F7DB
:10436000DE015196EBE1F4E080E101900D92815085
:10437000E1F7DE019196EBE0F4E080E101900D922F
:104380008150E1F789819A81AB81BC818093150AC4
:104390009093160AA093170AB093180A89899A89EC
:1043A000AB89BC898093050A9093060AA093070AFB
:1043B000B093080A89A19AA1ABA1BCA18093250A58
:1043C0009093260AA093270AB093280A8D819E8194
:1043D000AF81B8858093190A90931A0AA0931B0A9B
:1043E000B0931C0A8D899E89AF89B88D8093090A84
:1043F00090930A0AA0930B0AB0930C0A8DA19EA178
:10440000AFA1B8A58093290A90932A0AA0932B0AFA
:10441000B0932C0A89859A85AB85BC8580931D0A4B
:1044200090931E0AA0931F0AB093200A898D9A8D3B
:10443000AB8DBC8D80930D0A90930E0AA0930F0A4A
:10444000B093100A89A59AA5ABA5BCA580932D0AA7
:1044500090932E0AA0932F0AB093300A8D859E85E3
:10446000AF85B8898093210A9093220AA093230AEA
:10447000B093240A8D8D9E8DAF8DB8A18093110AC3
:104480009093120AA093130AB093140A8DA59EA5C7
:10449000AFA5B8A98093310A9093320AA093330A4A
:1044A000B093340A0E942E5380E090E8ABE3B5E469
:1044B0008093390A90933A0AA0933B0AB0933C0A3E
:1044C00080933D0A90933E0AA0933F0AB093400A1E
:1044D00020E030E040E050E02093350A3093360A87
:1044E0004093370A5093380A80E29EE4A0E0B0E09F
:1044F0008093010A9093020AA093030AB093040ADE
:1045000020934D0A30934E0A40934F0A5093500A1D
:1045100080E090E0A0EAB1E48093410A9093420ADF
:10452000A093430AB093440A8DEC9CECACECBEE340
:104530008093450A9093460AA093470AB093480A8D
:1045400080E090E0A0EAB0E48093490A90934A0AA0
:10455000A0934B0AB0934C0A209311083093120891
:10456000409313085093140820930D0830930E08BD
:1045700040930F08509310082093090830930A08BD
:1045800040930B0850930C0884EB90E09093111229
:104590008093101286E490E090931312809312128D
:1045A0002FEF30E0309315122093141280EF90E03B
:1045B000909317128093161284E690E0909319124C
:1045C0008093181230931B1220931A128AE999E9EA
:1045D000A1EBB1E48093DC039093DD03A093DE03B1
:1045E000B093DF0361E77DE38AE89FE30E94067FE3
:1045F0006093E0037093E1038093E2039093E303FD
:1046000060E070E084EE92E40E94127F6093E40325
:104610007093E5038093E6039093E7030E941E7E68
:1046200080E090E0A0E8BFE38093E8039093E90383
:10463000A093EA03B093EB03ECE2F3E0949108C09B
:104640008091C00085FFFCCF9093C6003196949175
:104650009923B1F7E2E3F3E0949108C08091C000A0
:1046600085FFFCCF9093C600319694919923B1F7C2
:104670008091C00085FFFCCF8AE08093C600E09661
:104680000FB6F894DEBF0FBECDBFCF91DF91089576
:10469000CF93DF93CCE2D3E0FE01949108C08091E8
:1046A000C00085FFFCCF9093C6003196949199236A
:1046B000B1F7ECE0F5E0949108C08091C00085FF6F
:1046C000FCCF9093C600319694919923B1F78091D5
:1046D000C00085FFFCCF8AE08093C600FE01949164
:1046E000ECE2F3E008C08091C00085FFFCCF90931E
:1046F000C600319694919923B1F74091150A5091D3
:10470000160A6091170A7091180A84E095E00E94D9
:10471000032E4091190A50911A0A60911B0A709158
:104720001C0A81E095E00E94032E40911D0A5091E1
:104730001E0A60911F0A7091200A8EEF94E00E9479
:10474000032E4091210A5091220A6091230A709110
:10475000240A8BEF94E00E94032EE6E1F2E007C00A
:104760008091C00085FFFCCF31969093C600908168
:104770009923B1F78091C00085FFFCCF8AE0809338
:10478000C600FE019491ECE2F3E008C08091C00005
:1047900085FFFCCF9093C600319694919923B1F791
:1047A000E1EEF4E0949108C08091C00085FFFCCF59
:1047B0009093C600319694919923B1F78091C000EF
:1047C00085FFFCCF8AE08093C600FE019491ECE265
:1047D000F3E008C08091C00085FFFCCF9093C60035
:1047E000319694919923B1F74091050A5091060AA8
:1047F0006091070A7091080A88ED94E00E94032EE8
:104800004091090A50910A0A60910B0A70910C0AB2
:1048100085ED94E00E94032E40910D0A50910E0AFE
:1048200060910F0A7091100A82ED94E00E94032EAD
:104830004091110A5091120A6091130A7091140A62
:104840008FEC94E00E94032EE6E1F2E007C0809135
:10485000C00085FFFCCF31969093C60090819923CC
:10486000B1F78091C00085FFFCCF8AE08093C6003D
:10487000FE019491ECE2F3E008C08091C00085FF56
:10488000FCCF9093C600319694919923B1F7E1EB58
:10489000F4E0949108C08091C00085FFFCCF909314
:1048A000C600319694919923B1F78091C00085FF9D
:1048B000FCCF8AE08093C600FE019491ECE2F3E025
:1048C00008C08091C00085FFFCCF9093C600319650
:1048D00094919923B1F74091250A5091260A60914D
:1048E000270A7091280A88EA94E00E94152E4091C8
:1048F000290A50912A0A60912B0A70912C0A85EAA4
:1049000094E00E94152E40912D0A50912E0A60913C
:104910002F0A7091300A82EA94E00E94152E40918D
:10492000310A5091320A6091330A7091340A8FE94A
:1049300094E00E94152EE6E1F2E007C08091C000ED
:1049400085FFFCCF31969093C60090819923B1F7F3
:104950008091C00085FFFCCF8AE08093C600FE01F5
:104960009491ECE2F3E008C08091C00085FFFCCF99
:104970009093C600319694919923B1F7EAE6F4E05A
:10498000949108C08091C00085FFFCCF9093C60031
:10499000319694919923B1F78091C00085FFFCCFA7
:1049A0008AE08093C600FE019491ECE2F3E008C037
:1049B0008091C00085FFFCCF9093C6003196949102
:1049C0009923B1F74091390A50913A0A60913B0A14
:1049D00070913C0A81E694E00E94032E40913D0ACA
:1049E00050913E0A60913F0A7091400A8EE594E032
:1049F0000E94032EE6E1F2E007C08091C00085FF2F
:104A0000FCCF31969093C60090819923B1F78091A5
:104A1000C00085FFFCCF8AE08093C600FE01949120
:104A2000ECE2F3E008C08091C00085FFFCCF9093DA
:104A3000C600319694919923B1F7EBEAF3E0949193
:104A400008C08091C00085FFFCCF9093C6003196CE
:104A500094919923B1F78091C00085FFFCCF8AE043
:104A60008093C600FE019491ECE2F3E008C08091CF
:104A7000C00085FFFCCF9093C60031969491992396
:104A8000B1F74091350A5091360A6091370A70911A
:104A9000380A82EA93E00E94032E40914D0A509119
:104AA0004E0A60914F0A7091500A8FE993E00E947C
:104AB000032E4091010A5091020A6091030A7091FD
:104AC000040A8CE993E00E94152E4091410A50910E
:104AD000420A6091430A7091440A89E993E00E9476
:104AE000032E4091450A5091460A6091470A709101
:104AF000480A86E993E00E94032E4091490A5091AA
:104B00004A0A60914B0A70914C0A83E993E00E9433
:104B1000032EE6E1F2E007C08091C00085FFFCCFE4
:104B200031969093C60090819923B1F78091C0008F
:104B300085FFFCCF8AE08093C600FE019491ECE2F1
:104B4000F3E008C08091C00085FFFCCF9093C600C1
:104B5000319694919923B1F7E1E8F3E0949108C07C
:104B60008091C00085FFFCCF9093C6003196949150
:104B70009923B1F78091C00085FFFCCF8AE0809334
:104B8000C600FE019491ECE2F3E008C08091C00001
:104B900085FFFCCF9093C600319694919923B1F78D
:104BA0004091090850910A0860910B0870910C0817
:104BB00088E793E00E94032E40910D0850910E0863
:104BC00060910F087091100885E793E00E94032E12
:104BD00040911108509112086091130870911408C7
:104BE00082E793E00E94032EE6E1F2E007C08091A5
:104BF000C00085FFFCCF31969093C6009081992329
:104C0000B1F78091C00085FFFCCF8AE08093C60099
:104C1000FE019491ECE2F3E008C08091C00085FFB2
:104C2000FCCF9093C600319694919923B1F7E4E6B6
:104C3000F3E0949108C08091C00085FFFCCF909371
:104C4000C600319694919923B1F78091C00085FFF9
:104C5000FCCF8AE08093C600FE019491ECE2F3E081
:104C600008C08091C00085FFFCCF9093C6003196AC
:104C700094919923B1F74091DC035091DD03609149
:104C8000DE037091DF038AE593E0BDD76091E00316
:104C90007091E1038091E2039091E3030E940C7F05
:104CA000AB01BC0187E593E0AED76091E40370915E
:104CB000E5038091E6039091E7030E94187FAB0122
:104CC000BC0184E593E09FD7E6E1F2E007C0809164
:104CD000C00085FFFCCF31969093C6009081992348
:104CE000B1F78091C00085FFFCCF8AE08093C600B9
:104CF000DF91CF9108951F920F920FB60F920BB6CE
:104D00000F9211242F933F934F938F939F93EF9381
:104D1000FF934091C600E0916005F09161053196E6
:104D20009F012F77307031978091620590916305D4
:104D30002817390739F0E052FB4F40833093610563
:104D400020936005FF91EF919F918F914F913F913B
:104D50002F910F900BBE0F900FBE0F901F901895C4
:104D60009A01AB01203081EE380780E0480780E0EF
:104D7000580749F182E08093C00060E079E08DE35C
:104D800090E00E94F7DA2150304040405040CA0184
:104D9000B90122E030E040E050E00E94F7DA3093C1
:104DA000C5002093C4008091C10080618093C10040
:104DB0008091C10088608093C1008091C1008068AB
:104DC0008093C10008951092C00020E130E0E7CF49
:104DD0002091620530916305809160059091610595
:104DE0008217930719F42FEF3FEF0EC0F901E0523D
:104DF000FB4F80812F5F3F4F2F77307030936305DB
:104E000020936205282F30E0C90108958091620542
:104E100090916305909361058093600508950895CE
:104E20002F923F924F925F926F927F928F929F92BA
:104E3000AF92BF92CF92DF92EF92FF920F931F93A8
:104E4000DF93CF93CDB7DEB7A0970FB6F894DEBF50
:104E50000FBECDBF1C016A017B01411551056105E3
:104E6000710541F440E350E060E070E020E030E0A4
:104E70008BD055C0882499245401422E5524662491
:104E8000772401E010E00C0F1D1F080D191DC7014C
:104E9000B601A30192010E94D5DAF801608308945B
:104EA000811C911CA11CB11CC701B601A301920178
:104EB0000E94D5DAC901DA016C017D01C114D10467
:104EC000E104F104F1F681E0E82EF12CEC0EFD1E78
:104ED000E80CF91C3E010894611C711CD501C40149
:104EE0000197A109B1096C01C818D90815C0F601CC
:104EF000EE0DFF1D40814A3010F4405D01C0495C59
:104F0000552747FD5095652F752FC10120E030E0F2
:104F10003BD00894E108F1086E147F0441F7A09695
:104F20000FB6F894DEBF0FBECDBFCF91DF911F91BA
:104F30000F91FF90EF90DF90CF90BF90AF909F9038
:104F40008F907F906F905F904F903F902F9008953B
:104F50002115310539F48091C00085FFFCCF4093C5
:104F6000C60008955DCFEF92FF920F931F939A01B1
:104F7000E62EFF2400E010E0B801A701E9DF1F9151
:104F80000F91FF90EF900895EF92FF920F931F9370
:104F9000CF93DF93EC017A018B012115310539F4B0
:104FA0008091C00085FFFCCFE092C60019C02A3076
:104FB0003105A9F477FF0FC04DE250E060E070E0EA
:104FC00020E030E0E1DF10950095F094E094E11CE2
:104FD000F11C011D111DCE01B801A7012AE020DF3F
:104FE000DF91CF911F910F91FF90EF900895EF9275
:104FF000FF920F931F937B019A010027F7FC009506
:10500000102FB801A701C0DF1F910F91FF90EF9003
:1050100008950F931F938C014DE050E060E070E025
:1050200020E030E0B1DFC8014AE050E060E070E02D
:1050300020E030E0A9DF1F910F910895CF92DF9219
:10504000EF92FF920F931F938C019A016B01EE2454
:10505000FF24B701A6017CDFC801DBDF1F910F91A0
:10506000FF90EF90DF90CF9008959F92AF92BF9204
:10507000CF92DF92EF92FF920F931F93CF93DF9324
:10508000EC017A018B01922ECB01BA0120E030E0D5
:1050900040E050E00E94DDD6882364F4CE014DE26A
:1050A00050E060E070E020E030E06EDF17FB10952C
:1050B00017F9109520E030E040E05FE3AA240BC030
:1050C000CA01B90120E030E040E251E40E94E4D698
:1050D0009B01AC01A394A91498F3C801B7010E94E5
:1050E00004D67B018C010E9451D75B016C010E94A8
:1050F0007DD79B01AC01C801B7010E9403D67B019B
:105100008C01CE01B601A5012AE030E021DF992013
:1051100099F1E7E1F2E007C08091C00085FFFCCF84
:1051200031969093C60090819923B1F725C0C801AC
:10513000B70120E030E040E251E40E94BDD97B019C
:105140008C010E944CD75B016C01CC24B7FCC0944D
:10515000DC2CCE01B601A5012AE030E015DFC60146
:10516000B5010E947FD79B01AC01C801B7010E9425
:1051700003D67B018C019A949920C9F6DF91CF91D7
:105180001F910F91FF90EF90DF90CF90BF90AF9065
:105190009F9008956ACF0895EF92FF920F931F9307
:1051A000CF93DF93EC01E0901508F0901608009182
:1051B000170810911808688179818A819B81A8015C
:1051C00097010E94DDD6882324F4E882F9820A83BD
:1051D0001B83E0901908F0901A0800911B081091A9
:1051E0001C086C817D818E819F81A80197010E949E
:1051F000DDD6882324F4EC82FD820E831F83E090A9
:105200001D08F0901E0800911F0810912008688565
:1052100079858A859B85A80197010E94DDD6882320
:1052200024F4E886F9860A871B87E090B003F090A3
:10523000B1030091B2031091B303688179818A812F
:105240009B81A80197010E94EBD8181624F4E882EC
:10525000F9820A831B83E090B403F090B5030091B8
:10526000B6031091B7036C817D818E819F81A80167
:1052700097010E94EBD8181624F4EC82FD820E836D
:105280001F83E090B803F090B9030091BA03109126
:10529000BB03688579858A859B85A80197010E9453
:1052A000EBD8181624F4E886F9860A871B87DF9165
:1052B000CF911F910F91FF90EF9008958091340846
:1052C00008950F931F93CF93DF938130910549F495
:1052D0006F5F7F4F09F046C085E695E00E9401218F
:1052E00041C0892B09F03EC06F5F7F4FD9F58BE736
:1052F00094E09093300780932F078091360788239E
:1053000021F083E397E00E946F68CBEED6E00BE7D5
:1053100014E005C06F9785E0C53BD80751F01983AD
:1053200008838F818823B1F3CE0104960E946F68B1
:10533000F1CF8BE794E0998388838F81882321F0D4
:10534000CE0104960E946F688BE794E090939505D8
:105350008093940580919B05882321F088E995E04E
:105360000E946F68DF91CF911F910F91089580E0A7
:1053700090E06FEF7FEFA5CF81E090E06FEF7FEFE0
:10538000A0CF0E94F07E80913408882309F03AC0B3
:1053900081E0809334088091370890913808A0917B
:1053A0003908B0913A0880933B0890933C08A09349
:1053B0003D08B0933E08E2E2F5E0949108C0809188
:1053C000C00085FFFCCF9093C6003196949199233D
:1053D000B1F7E3E3F5E0949108C08091C00085FF48
:1053E000FCCF9093C600319694919923B1F78091A8
:1053F000C00085FFFCCF8AE08093C60089E295E07B
:105400000C9478C208950E94769580E197E220E995
:1054100031E0F9013197F1F70197D9F7F8940E943B
:10542000F07E5F9A109221088A9A109222088FB714
:10543000F894909108019160909308018FBF1092A9
:105440002308129AE2E2F5E0949108C08091C0002E
:1054500085FFFCCF9093C600319694919923B1F7C4
:10546000FFCF89E260E00E94FBD0A09A0895F894F3
:105470000E94F07E5F9A109221088A9A1092220868
:105480008FB7F894909108019160909308018FBFB5
:1054900010922308129A8CE060E00E94FBD0E2E2B6
:1054A000F5E0949108C08091C00085FFFCCF9093F7
:1054B000C600319694919923B1F7E2EBF5E094910F
:1054C00008C08091C00085FFFCCF9093C600319644
:1054D00094919923B1F78091C00085FFFCCF8AE0B9
:1054E0008093C60089EA95E00E9487C2FFCF0E94A0
:1054F0003CCF609341087093420880934308909397
:105500004408E0916A08F0916B08E459F74F8081F4
:105510008823A9F4E1EDF5E0949108C08091C000E2
:1055200085FFFCCF9093C600319694919923B1F7F3
:105530008091C00085FFFCCF8AE08093C60008956B
:105540000E943CCF609341087093420880934308C7
:105550009093440808956F927F928F929F92AF929A
:10556000BF92CF92DF92EF92FF920F931F93F82E8C
:105570006091490870914A0880914B0890914C08BD
:1055800020914D0830914E0840914F08509150089D
:105590000E94F8D83B014C0100D000D00DB71EB7D7
:1055A0000F5F1F4F6091A6037091A703882777FDB7
:1055B0008095982F0E947FD72091C2033091C3031A
:1055C0004091C4035091C5030E94BDD920E030E052
:1055D00040E752E40E94E4D620E030E048EC52E498
:1055E0000E94E4D65B016C01F801608271828282C4
:1055F0009382F48280912808858389EF97E065E59E
:1056000078E049E458E020E001E032E0E32E0E9437
:10561000214E8091550890915608A0915708B0915D
:1056200058088093F9079093FA07A093FB07B0936B
:10563000FC078091590890915A08A0915B08B0919D
:105640005C088093FD079093FE07A093FF07B0933B
:10565000000880915D0890915E08A0915F08B0916C
:1056600060088093010890930208A0930308B09308
:1056700004088091610890916208A0916308B0913C
:1056800064088093050890930608A0930708B093D8
:1056900008088DB79EB706960FB6F8949EBF0FBE4A
:1056A0008DBF0E943CCF6093410870934208809365
:1056B0004308909344081F910F91FF90EF90DF9063
:1056C000CF90BF90AF909F908F907F906F900895F4
:1056D000CF92DF92EF92FF920F931F9385E598E0B0
:1056E0005BDD0E943CCF6093410870934208809339
:1056F0004308909344086091F9077091FA078091EC
:10570000FB079091FC072091550830915608409175
:105710005708509158080E94DDD6882309F07AC0B6
:105720006091FD077091FE078091FF07909100083E
:105730002091590830915A0840915B0850915C08BB
:105740000E94DDD6882309F065C06091C203709184
:10575000C3038091C4039091C50320E030E040E78B
:1057600052E40E94E4D67B018C0185E598E069E56E
:1057700078E04DE558E021E638E0E8E2CE2EE8E0BA
:10578000DE2E0E947C588091550890915608A09179
:105790005708B09158088093F9079093FA07A0939F
:1057A000FB07B093FC078091590890915A08A0918B
:1057B0005B08B0915C088093FD079093FE07A0936F
:1057C000FF07B093000880915D0890915E08A0915A
:1057D0005F08B09160088093010890930208A0933D
:1057E0000308B09304088091610890916208A09129
:1057F0006308B09164088093050890930608A0930D
:105800000708B09308081F910F91FF90EF90DF9069
:10581000CF9008956091A6037091A703882777FD24
:105820008095982F0E947FD72091C2033091C303A7
:105830004091C4035091C5030E94BDD920E030E0DF
:1058400040E752E40E94E4D620E030E048EC52E425
:1058500088CF84E695E0DADAE4EDF5E0949108C0CB
:105860008091C00085FFFCCF9093C6003196949143
:105870009923B1F740913708509138086091390861
:1058800070913A084F5F5F4F6F4F7F4F84E695E00E
:105890002AE030E079DB8091C00085FFFCCF8AE010
:1058A0008093C60024CE2F923F924F925F926F92C8
:1058B0007F928F929F92AF92BF92CF92DF92EF92A0
:1058C000FF920F931F93DF93CF93CDB7DEB7289747
:1058D0000FB6F894DEBF0FBECDBF98878F8383309D
:1058E000910508F056C1FC01E05CF74FD4903C01F3
:1058F000660C771C660C771C93012750384F3A834F
:10590000298380E090E0A0E0B0E0F90180839183FA
:10591000A283B38389EF97E06DEF77E041E058E031
:1059200025E038E00E947653F301ED5BF74FE590F8
:10593000F590059114916D2D772767FD7095882757
:1059400077FD8095982F0E947FD71B012C01930132
:105950002B5A374F3C832B83C801B70120E030E03E
:1059600040EC5FE30E94BDD9A20191010E94BDD924
:10597000AB81BC816D937D938D939C931397F301C1
:10598000EA56FC4FFE83ED836081718182819381B1
:105990006093C2037093C3038093C4039093C503C1
:1059A00020E030E040E752E40E94E4D67B018C0125
:1059B00085E598E069E578E04DE558E021E638E0D6
:1059C000A8E2CA2EA8E0DA2E0E947C580E943B76FC
:1059D00080E090E0A0E0B0E0E981FA8180839183EB
:1059E000A283B38389EF97E06DEF77E041E058E061
:1059F00025E038E00E947653F301E15BF74F859094
:105A00009590A590B490C501B4019058A201910160
:105A10000E94BDD9AB81BC816D937D938D939C9386
:105A200013976091C2037091C3038091C403909156
:105A3000C50320E030E040E752E40E94E4D67B0159
:105A40008C0185E598E069E578E04DE558E021E6D0
:105A500038E00E947C580E943B76C501B401A50144
:105A600094010E9404D6A20191010E94BDD9EB814C
:105A7000FC816083718382839383AD81BE816D914C
:105A80007D918D919C9120E030E040E05FE30E94A9
:105A9000BDD96093C2037093C3038093C4039093F2
:105AA000C50320E030E040E752E40E94E4D67B01E9
:105AB0008C0185E598E069E578E04DE558E021E660
:105AC00038E00E947C580E943B76F301E55AF74F7C
:105AD0006591759185919491F301E75FF74FA080EF
