:100000000C94950C0C94C60C0C94C60C0C94C60C59
:100010000C94C60C0C94C60C0C94C60C0C94C60C18
:100020000C94C60C0C94C60C0C94C60C0C94C60C08
:100030000C94C60C0C943FA50C94C60C0C94C60CE6
:100040000C94C60C0C9471590C94C60C0C94C60CF0
:100050000C94C60C0C94C60C0C94036C0C94349F3A
:100060000C94C60C0C942C0E0C94C60C0C94C60C60
:100070000C94C60C0C94C60C0C94C60C0C94C60CB8
:100080000C94C60C0C94C60C0C94C60C0C94C60CA8
:100090000C94C60C0C94C60C0C94C60C0C94C60C98
:1000A0000C94C60C0C94C60C0C94C60C0C94C60C88
:1000B0000C94C60C0C94C60C0C94C60C0C94C60C78
:1000C0000C94C60C0C94C60C0C94C60C0C94C60C68
:1000D0000C94C60C0C94C60C0C94C60C0C94C60C58
:1000E0000C94C60C556C646C806C8F6CA96CB86CED
:1000F000D26CD66C63A068A06DA077A081A0FAA096
:100100008BA093A09BA0A5A0AFA0B9A0C8A0D2A08F
:10011000FAA0DCA0E6A0F0A01CA11FA10EA112A1D4
:1001200018A156A123A127A12DA131A135A13BA141
:100130003FA143A156A149A14DA151A1084AD73BD6
:100140003BCE016E84BCBFFDC12F3D6C74319ABDA6
:1001500056833DDA3D00C77F11BED9E4BB4C3E91CA
:100160006BAAAABE000000803F05A84CCDB2D44EB9
:10017000B93836A9020C50B9918688083CA6AAAABB
:100180002ABE000000803F0048617264636F6465AE
:10019000642044656661756C742053657474696E7F
:1001A0006773204C6F61646564006563686F3A0033
:1001B00053544F505045442E20005072696E746560
:1001C000722073746F707065642064756520746F3D
:1001D000206572726F72732E20466978207468658C
:1001E000206572726F7220616E6420757365204D98
:1001F00039393920746F20726573746172742E20DE
:100200002854656D7065726174757265206973201C
:1002100072657365742E205365742069742061665D
:100220007465722072657374617274696E672900F7
:100230004B494C4C45442E20005072696E746572D7
:100240002068616C7465642E206B696C6C282920B1
:1002500063616C6C656421006F6B00526573656E41
:10026000643A20002200556E6B6E6F776E20636FCC
:100270006D6D616E643A2022007A5F6D61783A207C
:10028000007A5F6D696E3A2000795F6D61783A207F
:1002900000795F6D696E3A2000785F6D61783A2071
:1002A00000785F6D696E3A20005A3A00593A002092
:1002B000436F756E7420583A2000453A005A3A0050
:1002C000593A00583A004649524D574152455F4EFF
:1002D000414D453A4D61726C696E2056313B205359
:1002E0007072696E7465722F6772626C206D6173D3
:1002F00068757020666F722067656E3620464952B9
:100300004D574152455F55524C3A687474703A2FBC
:100310002F7777772E6D656E64656C2D70617274C2
:10032000732E636F6D2050524F544F434F4C5F56A6
:10033000455253494F4E3A312E30204D41434849A2
:100340004E455F545950453A4D656E64656C204585
:10035000585452554445525F434F554E543A310A12
:100360000042656420646F6E652E0020423A0020D2
:10037000453A00543A004265642048656174696EEC
:10038000672E0048656174696E6720646F6E652E24
:100390000020573A0020453A00543A0048656174FD
:1003A000696E672E2E2E002042403A0020403A000F
:1003B000202F0020423A00202F006F6B20543A007B
:1003C0002569206D696E2C202569207365630045C1
:1003D0006E642066696C65206C69737400426567A1
:1003E000696E2066696C65206C697374004E6F20BD
:1003F0006D6F76652E00526573756D696E6720703E
:1004000072696E74005761697420666F722075732B
:1004100065722E2E2E00536C6565702E2E2E0025D3
:100420006920686F757273202569206D696E757417
:10043000657300446F6E65207072696E74696E67D3
:100440002066696C650053544F505045442E20007F
:100450005072696E7465722073746F707065642079
:1004600064756520746F206572726F72732E2046FA
:10047000697820746865206572726F7220616E649D
:1004800020757365204D39393920746F207265737A
:10049000746172742E202854656D70657261747574
:1004A00072652069732072657365742E20536574BC
:1004B000206974206166746572207265737461725C
:1004C00074696E6729006F6B004E6F204C696E6512
:1004D000204E756D62657220776974682063686567
:1004E000636B73756D2C204C617374204C696E6561
:1004F0003A20004E6F20436865636B73756D2077FB
:10050000697468206C696E65206E756D6265722C09
:10051000204C617374204C696E653A2000636865F5
:10052000636B73756D206D69736D617463682C20E6
:100530004C617374204C696E653A20004C696E659D
:10054000204E756D626572206973206E6F74204C49
:10055000617374204C696E65204E756D6265722BF7
:10056000312C204C617374204C696E653A20004D2B
:1005700031313000446F6E6520736176696E67209B
:1005800066696C652E006F6B004D3239002020507B
:100590006C616E6E657242756666657242797465ED
:1005A000733A20002046726565204D656D6F727943
:1005B0003A20004465632032332032303136004324
:1005C0006F6D70696C65643A2000284D616B6572CF
:1005D0004C61622C2064656661756C7420636F6E7B
:1005E0006669672900207C20417574686F723A2023
:1005F0000044656320323320323031362031393ABD
:1006000032333A313300204C617374205570646189
:100610007465643A2000312E302E30004D61726CCA
:10062000696E200020536F66747761726520526591
:1006300073657400205761746368646F6720526546
:10064000736574002042726F776E206F757420524C
:1006500065736574002045787465726E616C205214
:100660006573657400506F776572557000737461BF
:100670007274002200656E717565696E67202200D4
:100680002200656E717565696E67202200FFFFFFAD
:100690000000A0400000A0400000803F00005C433C
:1006A00000008743000043430000000000000000FA
:1006B0000000000000005C4300008743000043434B
:1006C0000000000000000000000000006563686F8B
:1006D0003A004572726F723A007C3C3E5E2B3D3FA1
:1006E0002F5B5D3B2C2A225C004D3834205820596A
:1006F000205A20450043616E6E6F7420656E7465EC
:1007000072207375626469723A20004D3234004D74
:100710003233202573006175746F25692E6700657B
:1007200072726F722077726974696E6720746F20BD
:1007300066696C65004E6F74205344207072696E58
:1007400074696E67002F005344207072696E74697B
:100750006E67206279746520002E0044656C6574B4
:10076000696F6E206661696C65642C2046696C65F2
:100770003A200046696C652064656C657465643A6E
:10078000002E006F70656E206661696C65642C20B8
:1007900046696C653A200057726974696E67207407
:1007A0006F2066696C653A20002E006F70656E20C0
:1007B0006661696C65642C2046696C653A20002E80
:1007C000006F70656E206661696C65642C204669F7
:1007D0006C653A200046696C652073656C656374CE
:1007E0006564002053697A653A200046696C65208B
:1007F0006F70656E65643A20002E006F70656E2024
:100800006661696C65642C2046696C653A2000530A
:10081000442063617264206F6B006F70656E526F6D
:100820006F74206661696C656400766F6C756D65C8
:100830002E696E6974206661696C6564005344209A
:10084000696E6974206661696C006563686F3A005F
:100850004572726F723A0020746F6F206C6F6E6712
:1008600020657874727573696F6E20707265766535
:100870006E7465640020636F6C64206578747275B3
:1008800073696F6E2070726576656E74656400655D
:1008900063686F3A00656E6473746F707320686983
:1008A000743A205A00205A3A00656E6473746F706F
:1008B00073206869743A20590020593A00656E64C3
:1008C00073746F7073206869743A20580020583A26
:1008D00000656E6473746F7073206869743A2000E9
:1008E00024F4D43050C38E20C2A24017828B7011E2
:1008F000127A910D816CD90AA861E108C758660780
:10090000615143061E4B5D05C145A7041A41110400
:10091000093D9803713931034036DB02653391029A
:10092000D4305402802E1D02632CEE01752AC501BD
:10093000B028A001102781018F2564012B244B01D1
:10094000E0223401AC211F018D200D01801FFC002D
:10095000841EED00971DDF00B81CD200E61BC60008
:10096000201BBC00641AB200B219A8000A19A0002A
:100970006A189900D117910040178B00B5168400B2
:1009800031167E00B31579003A157300C7146F0055
:1009900058146A00EE1366008813630025135E0086
:1009A000C7125B006C12570015125400C1115100A0
:1009B00070114F0021114B00D61049008D104700D7
:1009C0004610440002104200C00F4000800F3E005D
:1009D000420F3C00060F3B00CB0E3800930E370051
:1009E0005C0E3500270E3400F30D3200C10D3100CE
:1009F000900D3000600D2E00320D2D00050D2C00E5
:100A0000D90C2B00AE0C2900850C29005C0C2700AA
:100A1000350C27000E0C2600E80B2400C40B240024
:100A2000A00B23007D0B23005A0B2100390B210062
:100A3000180B2000F80A1F00D90A1E00BB0A1E006E
:100A40009D0A1D00800A1D00630A1C00470A1B0046
:100A50002C0A1B00110A1A00F7091A00DD091900F7
:100A6000C4091900AB091900920917007B09180085
:100A7000630917004C0916003609160020091600F4
:100A80000A091500F5081500E0081400CC08140048
:100A9000B8081400A4081400900813007D08120080
:100AA0006B081300580812004608120034081100A1
:100AB000230811001208110001081100F0071000AE
:100AC000E0071000D0071000C0071000B0070F00AB
:100AD000A107100091070E0083070F0074070F0095
:100AE00065070E0057070E0049070E003B070D0073
:100AF0002E070E0020070D0013070D0006070D003E
:100B0000F9060C00ED060D00E0060C00D4060C0002
:100B1000C8060C00BC060C00B0060C00A4060B00B6
:100B200099060C008D060B0082060B0077060B0061
:100B30006C060B0061060A0057060B004C060A0003
:100B400042060A0038060A002E060A0024060A0099
:100B50001A060A001006090007060A00FD0509002A
:100B6000F4050900EB050900E2050900D9050900B3
:100B7000D0050900C7050900BE050900B505080034
:100B8000AD050800A50509009C05080094050800AE
:100B90008C050800840508007C0508007405080021
:100BA0006C050700650508005D050700560508008F
:100BB0004E050700470507004005080038050700F7
:100BC000310507002A050700230507001C0506005C
:100BD000160507000F0507000805060002050700B7
:100BE000FB040600F5040700EE040600E804060016
:100BF000E2040700DB040600D5040600CF0406006B
:100C0000C9040600C3040600BD040600B7040600BC
:100C1000B1040500AC040600A6040600A00405000B
:100C20009B04060095040500900406008A04050054
:100C300085040500800406007A040500750405009B
:100C4000700405006B0405006604050061040500DE
:100C50005C04050057040500520405004D0405001E
:100C600048040500430405003E0404003A0405005E
:100C700035040500300404002C040500270404009A
:100C8000230405001E0404001A04040016040500D1
:100C9000110404000D040400090405000404040008
:100CA00000040400FC030400F8030400F40304003F
:100CB000F0030400EC030400E8030400E403040070
:100CC000E0030400DC030400D8030400D4030400A0
:100CD000D0030400CC030400C8030300C5030300D1
:100CE00024F404D9201BC40C5C0E9804C4095F02D0
:100CF00065077101F405F900FB04B300480487009F
:100D0000C10369005803550003034500BE023A00C1
:100D10008402310053022A00290225000402200027
:100D2000E4011C00C8011900AF011700980114006C
:100D300084011300710110006101100051010E00C7
:100D400043010D0036010B002B010B0020010B00AD
:100D5000150109000C01090003010800FB0008004F
:100D6000F3000800EB000700E4000600DE000600C8
:100D7000D8000600D2000600CC000500C700050020
:100D8000C2000500BD000400B9000400B500040065
:100D9000B1000400AD000400A9000400A500030098
:100DA000A20003009F0004009B00030098000300C2
:100DB0009500020093000300900003008D000200E4
:100DC0008B000300880002008600020084000300FC
:100DD000810002007F0002007D0002007B00020013
:100DE0007900020077000100760002007400020022
:100DF00072000100710002006F0002006D0001002E
:100E00006C0002006A000100690002006700010036
:100E1000660001006500010064000200620001003C
:100E200061000100600001005F0002005D00010040
:100E30005C0001005B0001005A0001005900010044
:100E40005800010057000100560001005500010044
:100E50005400010053000000530001005200010043
:100E600051000100500001004F0001004E00000041
:100E70004E0001004D0001004C0001004B0000003D
:100E80004B0001004A000100490001004800000039
:100E90004800010047000100460000004600010034
:100EA000450000004500010044000100430000002F
:100EB0004300010042000000420001004100000028
:100EC00041000100400001003F0000003F00010020
:100ED0003E0000003E0001003D0000003D0001001A
:100EE0003C0000003C0000003C0001003B00000012
:100EF0003B0001003A0000003A0001003900000008
:100F000039000100380000003800000038000100FE
:100F100037000000370001003600000036000000F6
:100F200036000100350000003500000035000100EA
:100F300034000000340000003400010033000000E1
:100F400033000000330001003200000032000000D6
:100F500032000100310000003100000031000100CA
:100F60003000000030000000300001002F000000C1
:100F70002F0000002F0000002F0001002E000000B5
:100F80002E0000002E0001002D0000002D000000AA
:100F90002D0000002D0001002C0000002C0000009E
:100FA0002C0000002C0001002B0000002B00000092
:100FB0002B0000002B0001002A0000002A00000086
:100FC0002A0000002A00010029000000290000007A
:100FD000290000002900000029000100280000006D
:100FE0002800000028000000280000002800010060
:100FF0002700000027000000270000002700000055
:101000002700010026000000260000002600000046
:101010002600000026000100250000002500000039
:10102000250000002500000025000000250001002B
:101030002400000024000000240000002400000020
:101040002400010023000000230000002300000012
:101050002300000023000000230000002300010003
:1010600022000000220000002200000022000000F8
:1010700022000000220001002100000021000000E9
:1010800021000000210000002100000021000000DC
:1010900021000100200000002000000020000000CE
:1010A00020000000200000002000000020000000C0
:1010B000200001001F0000001F0000001F000000B2
:1010C0001F0000001F0000001F0000001F000100A3
:1010D0001E0000001E0000001E0000001E00000098
:1010E0006563686F3A004572723A204D4158544525
:1010F0004D50204245440054656D706572617475B1
:101100007265206865617465642062656420737728
:10111000697463686564206F66662E204D4158547B
:10112000454D50207472696767657265642021219E
:10113000004572723A204D494E54454D50003A20B8
:101140004578747275646572207377697463686535
:1011500064206F66662E204D494E54454D502074D4
:1011600072696767657265642021004572723A2072
:101170004D415854454D50003A204578747275647D
:101180006572207377697463686564206F66662E84
:10119000204D415854454D502074726967676572FF
:1011A0006564202100202D20496E76616C696420E1
:1011B0006578747275646572206E756D62657220F3
:1011C0002100504944204175746F74756E65206626
:1011D000696E6973686564202120506C61636520C5
:1011E000746865204B702C204B6920616E64204B25
:1011F0006420636F6E7374616E747320696E207403
:10120000686520636F6E66696775726174696F6E79
:101210002E6800504944204175746F74756E6520C6
:101220006661696C6564212074696D656F75740011
:1012300020403A006F6B20543A006F6B20423A0016
:10124000504944204175746F74756E6520666169FC
:101250006C6564212054656D70657261747572658A
:1012600020746F206869676800204B643A20002072
:101270004B693A2000204B703A200020436C617388
:1012800069632050494420002054753A2000204BC7
:10129000753A2000206D61783A2000206D696E3A21
:1012A000200020643A200020626961733A200045E2
:1012B00072726F723A0070012C0190012701B00127
:1012C0002201C0011D01F0011801100213013002BA
:1012D0000E016002090190020401C002FF00000338
:1012E000FA004003F5008003F000D003EB00200477
:1012F000E6007004E100E004DC004005D700C00512
:10130000D2004006CD00D006C8008007C3003008D8
:10131000BE00F008B900C009B400B00AAF00B00BBD
:10132000AA00D00CA500000EA000500F9B00C0101A
:1013300096005012910000148C00C0158700B01761
:101340008200B0197D00D01B7800001E7300402081
:101350006E0090226900F024640040275F0090290D
:101360005A00E02B5500102E500020304B00103258
:101370004600E033410090353C00103737007038AC
:101380003200A0392D00B03A2800A03B2300603C79
:101390001E00103D1900903D1400103E0F00703EDD
:1013A0000A00C03E0500003F0000436172642072E5
:1013B000656D6F766564004361726420696E736564
:1013C00072746564002D2D3A2D2D002D2D2D0053A6
:1013D0004400205900012000012000466C6F770076
:1013E000466C6F770046616E2073706565640046D9
:1013F000616E2073706565640042656400426564D7
:10140000004E6F7A7A6C65004E6F7A7A6C65005385
:1014100070656564005370656564004D61696E00B8
:10142000580059005A004578747275646572004519
:1014300078747275646572004D6F7665205A004D40
:101440006F76652059004D6F76652058004D6F7698
:10145000652041786973004D6F766520302E316DBF
:101460006D004D6F766520316D6D004D6F76652096
:1014700031306D6D0050726570617265004D6F7630
:1014800065204178697300436F6F6C646F776E00FD
:1014900050726568656174204142530050726568FE
:1014A00065617420504C4100473238004175746FBB
:1014B00020486F6D65004D38340044697361626C7B
:1014C00065205374657070657273004D61696E00BC
:1014D00042656400426564004E6F7A7A6C65004E26
:1014E0006F7A7A6C650046616E2073706565640082
:1014F00046616E2073706565640054656D70657239
:1015000061747572650042656400426564004E6FE7
:101510007A7A6C65004E6F7A7A6C650046616E204F
:1015200073706565640046616E2073706565640064
:1015300054656D706572617475726500507265688E
:101540006561742041425320436F6E66005072659E
:101550006865617420504C4120436F6E66005049AD
:10156000442D43005049442D43005049442D44002C
:101570005049442D44005049442D49005049442DC0
:1015800049005049442D50005049442D500020023C
:1015900020466163740020022046616374002002CB
:1015A000204D6178002002204D6178002002204DFE
:1015B000696E002002204D696E004F6666004F6E16
:1015C00020004F6666004F6E20004175746F746591
:1015D0006D700046616E2073706565640046616ED3
:1015E0002073706565640042656400426564004E66
:1015F0006F7A7A6C65004E6F7A7A6C6500436F6E15
:1016000074726F6C004573746570732F6D6D004557
:1016100073746570732F6D6D005A73746570732FDA
:101620006D6D005A73746570732F6D6D005973740E
:101630006570732F6D6D005973746570732F6D6DC8
:10164000005873746570732F6D6D005873746570F6
:10165000732F6D6D00412D7265747261637400416A
:101660002D7265747261637400416D61782065004C
:10167000416D6178206500416D6178207A00416D8F
:101680006178207A00416D6178207900416D617840
:10169000207900416D6178207800416D6178207873
:1016A000005654726176206D696E005654726176F0
:1016B000206D696E00566D696E00566D696E00563C
:1016C0006D6178206500566D6178206500566D610A
:1016D00078207A00566D6178207A00566D61782006
:1016E0007900566D6178207900566D617820780018
:1016F000566D617820780056652D6A65726B0056CC
:10170000652D6A65726B00567A2D6A65726B00569C
:101710007A2D6A65726B005678792D6A65726B0056
:101720005678792D6A65726B00416363656C004180
:101730006363656C00436F6E74726F6C0052657307
:10174000746F7265204661696C73616665004D6FE8
:1017500074696F6E0054656D706572617475726541
:10176000004D61696E004D383420582059205A20B0
:1017700045004D3234004D323320257300052E2EA6
:10178000004D61696E004E6F2043617264005072BB
:10179000696E742066726F6D2053440053746F70CD
:1017A000205072696E7400526573756D65205072B9
:1017B000696E74005061757365205072696E7400B3
:1017C000436F6E74726F6C00507265706172650069
:1017D00054756E6500496E666F2073637265656E41
:1017E0000000000A0B02090C0D0E0807030401009B
:1017F00000000000000000000000000000000000E9
:1018000000000000000000000000000000121110A5
:1018100000000000000000000000000000000000C8
:101820000000000000000001021020200808102025
:10183000401020408002010201080402010102045C
:10184000081020408080402010080402018004021B
:101850000180402010080402010804020101020472
:101860000810204080010204081020408005050572
:1018700005070508080808020202020A0A08080407
:101880000404040101010101010101030303030335
:10189000030303040707070C0C0C0C0C0C0C0C02C4
:1018A00002020206060606060606060B0B0B0B0BCB
:1018B0000B0B0B00002200250028002B002E00310E
:1018C00000340002010000050108010B01000021A5
:1018D00000240027002A002D003000330001010001
:1018E00000040107010A01024E414E494E49545974
:1018F000494E46CDCCCC3D0AD7233C17B7D13877DB
:10190000CC2B329595E6241FB14F0A0000204100F0
:1019100000C84200401C4620BCBE4CCA1B0E5AAE3A
:10192000C59D7400BF2C428EC32C11241FBECFEF67
:10193000D1E2DEBFCDBF00E00CBF14E0A0E0B2E01A
:10194000EEEBF1E601E00BBF02C007900D92AA3862
:10195000B107D9F720E1AAE8B4E001C01D92AB3B82
:10196000B207E1F719E1C8E2D9E100E006C0229729
:101970000109FE010BBF0E94ACAAC432D10780E06E
:101980000807A9F70E949FA50C94CEB00C94000004
:10199000AF92BF92CF92DF92EF92FF920F931F937D
:1019A000CF93DF93CDB7DEB7E0970FB6F894DEBFE5
:1019B0000FBECDBF80E1E2E7F2E0DE01919601903B
:1019C0000D928A95E1F780E1E2E8F2E0DE015196BE
:1019D00001900D928A95E1F780E1E2E9F2E0DE0103
:1019E000119601900D928A95E1F76E0181E2C80E81
:1019F000D11C89E5E82E8FE0F82E8E010F5E1F4F77
:101A000069E67FE0AE014F5F5F4F99E4A92E9FE04A
:101A1000B92E20E030E0F60181919191A191B19130
:101A20006F01F70181939193A193B1937F01F80125
:101A300081919191A191B1918F01FB01819391933A
:101A4000A193B193BF01FA0181919191A191B191BB
:101A5000AF01F50181939193A193B1935F012F5F42
:101A60003F4F24303105B9F60E947E5880E090E85F
:101A7000ABE3B5E48093410F9093420FA093430FE3
:101A8000B093440F80933D0F90933E0FA0933F0F70
:101A9000B093400F1092450F1092460F1092470FCF
:101AA0001092480F80E29EE4A0E0B0E08093790FAE
:101AB00090937A0FA0937B0FB0937C0F10922D0F11
:101AC00010922E0F10922F0F1092300F80E090E0A6
:101AD000A0EAB1E48093390F90933A0FA0933B0FA3
:101AE000B0933C0F8DEC9CECACECBEE38093350FD7
:101AF0009093360FA093370FB093380F80E090E0AB
:101B0000A0EAB0E48093310F9093320FA093330F8B
:101B1000B093340F1092F9061092FA061092FB0659
:101B20001092FC061092F5061092F6061092F70637
:101B30001092F8061092F1061092F2061092F30637
:101B40001092F40684EB90E09093811080938010C3
:101B500086E490E090937F1080937E108FEF90E06A
:101B600090937D1080937C1020EF30E030937B10B9
:101B700020937A1024E630E0309379102093781087
:101B800090937710809376108AE999E9A1EBB1E4FC
:101B90008093550290935602A0935702B093580237
:101BA00061E77DE38AE89FE30E94586D60935102EC
:101BB00070935202809353029093540260E070E05D
:101BC00084EE92E40E94646D60934D0270934E0225
:101BD00080934F02909350020E94596380E090E0FE
:101BE000A0E8BFE38093490290934A02A0934B027E
:101BF000B0934C02EAEAF1E08491882341F090919D
:101C0000C00095FFFCCF8093C6003196F5CFE8E881
:101C1000F1E08491882341F09091C00095FFFCCFC2
:101C20008093C6003196F5CF8091C00085FFFCCF30
:101C30008AE08093C600E0960FB6F894DEBF0FBE30
:101C4000CDBFDF91CF911F910F91FF90EF90DF906B
:101C5000CF90BF90AF9008951F920F920FB60F9242
:101C600011240BB60F922F933F934F935F936F9373
:101C70008F939F93EF93FF936091C60020910B0584
:101C800030910C05C90101968F77992740910D0578
:101C900050910E058417950741F0F901E557FB4F68
:101CA000608390930C0580930B05FF91EF919F91BA
:101CB0008F916F915F914F913F912F910F900BBE3C
:101CC0000F900FBE0F901F9018959A01AB01211530
:101CD00081EE38074105510549F182E08093C0004B
:101CE00060E079E08DE390E00E947AAA215031090A
:101CF00041095109CA01B90122E030E040E050E059
:101D00000E947AAA3093C5002093C4008091C1003C
:101D100080618093C1008091C10088608093C10080
:101D20008091C10080688093C10008951092C00026
:101D300020E130E0E7CF20910D0530910E05809134
:101D40000B0590910C058217930771F0F901E55787
:101D5000FB4F80812F5F3F4F2F77332730930E0546
:101D600020930D0590E008958FEF9FEF08958091E7
:101D70000D0590910E0590930C0580930B05089529
:101D80004F925F926F927F928F929F92AF92BF928B
:101D9000CF92DF92EF92FF920F931F93CF93DF9337
:101DA000CDB7DEB7A0970FB6F894DEBF0FBECDBF9C
:101DB0005C014115510561057105E9F420E030E051
:101DC00040E350E060E070E0A0960FB6F894DEBF0C
:101DD0000FBECDBFDF91CF911F910F91FF90EF907C
:101DE000DF90CF90BF90AF909F908F907F906F903B
:101DF0005F904F905BC08E010F5F1F4FC12CD12CA5
:101E000076014801422E512C612C712C8FEFC81A9B
:101E1000D80AE80AF80ACB01BA01A30192010E948C
:101E200058AACA01F80161938F01A901BC014115AB
:101E300051056105710551F7F1E0CF1AD108E108AC
:101E4000F108F401EC0DFD1D80818A3010F440E3AF
:101E500001C047E3480F552747FD5095652F752F63
:101E600020E030E0C50122D081E0C81AD108E108A5
:101E7000F108EFEFCE16DE06EE06FE0611F7A0968D
:101E80000FB6F894DEBF0FBECDBFDF91CF911F918B
:101E90000F91FF90EF90DF90CF90BF90AF909F9009
:101EA0008F907F906F905F904F900895211531052E
:101EB00039F48091C00085FFFCCF4093C60008959F
:101EC0002A30310509F41CC05BCFCF93DF93EC01BE
:101ED00020E030E04DE050E060E070E0E7DF20E03F
:101EE00030E04AE050E060E070E0CE01DF91CF9159
:101EF000DDCF9A01AB01662757FD6095762FD6CFCF
:101F0000CF92DF92EF92FF92CF93DF93EC016A01C1
:101F10007B0177FF0FC020E030E04DE250E060E051
:101F200070E0C4DFF094E094D094C094C11CD11C44
:101F3000E11CF11C2AE0B701A601CE01DF91CF918F
:101F4000FF90EF90DF90CF901BCF2115310539F432
:101F50008091C00085FFFCCF4093C600089510CF4C
:101F60009A01462F50E060E070E0EFCFCF93DF930F
:101F7000EC019A01AB0160E070E0E7DFCE01DF9198
:101F8000CF91A3CF8F929F92AF92BF92CF92DF92C9
:101F9000EF92FF921F93CF93DF93EC016A017B01D5
:101FA000122F20E030E0A901C701B6010E9487A6E8
:101FB00087FF0CC020E030E04DE250E060E070E0D0
:101FC000CE0174DFF7FAF094F7F8F094B12C60E0EA
:101FD00070E080E09FE3B11641F020E030E040E2A5
:101FE00051E40E948EA6B394F6CF9B01AC01C701C9
:101FF000B6010E94AEA56B017C010E94FBA64B01BD
:102000005C010E9427A79B01AC01C701B6010E9499
:10201000ADA56B017C012AE0B501A401CE01B0DEC3
:10202000112361F0E7E4F4E08191882339F0909185
:10203000C00095FFFCCF8093C600F6CF112319F1A5
:1020400020E030E040E251E4C701B6010E945CA903
:102050006B017C010E94F6A64B01AA2497FCA09478
:10206000BA2CB501A401CE014BDFC501B4010E9419
:1020700029A79B01AC01C701B6010E94ADA56B0168
:102080007C011150DBCFDF91CF911F91FF90EF903A
:10209000DF90CF90BF90AF909F908F90089572CFB8
:1020A000FC01659175918591949108957F928F922D
:1020B0009F92AF92BF92CF92DF92EF92FF920F93D7
:1020C0001F93CF93DF93EC018C01000F111F000FC2
:1020D000111FF801E350F94F10821182128213820E
:1020E00029E037E045E057E061E077E08DEF96E0EA
:1020F0000E94AC57C8018456994FD2DF9E012357E6
:10210000394F5901F90174904E01880C991C880CC3
:10211000991C84010E52194F20E030E040EC5FE33F
:102120000E945CA96B017C01672D772767FD709584
:10213000872F972F0E9429A79B01AC01C701B601E9
:102140000E945CA9F8016083718382839383F40108
:10215000E15EFD4F608171818281938160930A020B
:1021600070930B0280930C0290930D0220E030E0FC
:1021700040E752E40E948EA634EEC32E36E0D32E02
:102180007B018C012EED36E04AED56E066ED76E0FF
:1021900082ED96E00E94224E0E943161F401E350EC
:1021A000F94F108211821282138229E037E045E054
:1021B00057E061E077E08DEF96E00E94AC57940124
:1021C0002057394F4901C9016BDFF50124918E0178
:1021D000000F111F000F111F0E52194F6B017C01D0
:1021E000F7FAF094F7F8F094622F772767FD70956F
:1021F000872F972F0E9429A79B01AC01C701B60129
:102200000E945CA9F801608371838283938320E03C
:1022100030E040E752E460910A0270910B02809135
:102220000C0290910D020E948EA654EEC52E56E02F
:10223000D52E7B018C012EED36E04AED56E066EDA1
:1022400076E082ED96E00E94224E0E943161C40148
:1022500027DFF5011491CC0FDD1FCC0FDD1F9E0190
:102260002E52394F59019B01AC010E94AEA56B0162
:102270007C01612F772767FD7095872F972F0E942C
:1022800029A79B01AC01C701B6010E945CA9F50119
:102290006083718382839383FE01E15EFD4F20E0C2
:1022A00030E040E05FE360817181828193810E9430
:1022B0005CA960930A0270930B0280930C029093C6
:1022C0000D0220E030E040E752E40E948EA6F4EEDA
:1022D000CF2EF6E0DF2E7B018C012EED36E04AEDAD
:1022E00056E066ED76E082ED96E00E94224E0E9476
:1022F0003161CE018855994FD3DE9E012350394F6D
:1023000079018E010F50194FF801208131814281EE
:1023100053810E94AEA5F70160837183828393830A
:10232000CE018054994FBCDE9E012B51394F69017B
:10233000F80120813181428153810E94AEA5F601CE
:102340006083718382839383CE018C54994FA8DE7E
:10235000C15FDD4FF80120813181428153810E94AC
:10236000AEA5688379838A839B83F70180819181FD
:10237000A281B381F50180839183A283B3831092FC
:102380000A0210920B0210920C0210920D02DF91C1
:10239000CF911F910F91FF90EF90DF90CF90BF9062
:1023A000AF909F908F907F900C946159FC01249185
:1023B000222341F03091C00035FFFCCF2093C600AE
:1023C0000196F4CF22E030E08AE894E068CECF9323
:1023D000DF931F921F92CDB7DEB78091B510909119
:1023E000B6109E012F5F3F4F009719F42B5B3041D1
:1023F00002C0281B390B3A83298389819A810F9067
:102400000F90DF91CF9108952091270530912805F5
:10241000243031050CF06AC04091290550912A05FD
:1024200060E6649F9001659F300D1124BC01C901D5
:102430008F5C9A4F0E94E5ADECECF6E08491882326
:1024400041F09091C00095FFFCCF8093C60031967B
:10245000F5CFE2E8F6E08491882341F09091C00046
:1024600095FFFCCF8093C6003196F5CF809129056A
:1024700090912A0520E6289FF001299FF00D112454
:10248000EF5CFA4F8191882339F09091C00095FF5D
:10249000FCCF8093C600F6CFE0E8F6E08491882375
:1024A00041F09091C00095FFFCCF8093C60031961B
:1024B000F5CF8091C00085FFFCCF8AE08093C600F5
:1024C0008091290590912A05019664E070E00E94B0
:1024D00045AA90932A05809329058091270590911C
:1024E000280501969093280580932705089520914B
:1024F000270530912805243031050CF06AC0409141
:10250000290550912A0560E6649F9001659F300D72
:102510001124BC01C9018F5C9A4F0E9468ADECEC9C
:10252000F6E08491882341F09091C00095FFFCCFA4
:102530008093C6003196F5CFE5E7F6E084918823D5
:1025400041F09091C00095FFFCCF8093C60031967A
:10255000F5CF8091290590912A0520E6289FF0016A
:10256000299FF00D1124EF5CFA4F8191882339F0F7
:102570009091C00095FFFCCF8093C600F6CFE3E7B3
:10258000F6E08491882341F09091C00095FFFCCF44
:102590008093C6003196F5CF8091C00085FFFCCFB7
:1025A0008AE08093C6008091290590912A050196C2
:1025B00064E070E00E9445AA90932A058093290563
:1025C0008091270590912805019690932805809386
:1025D0002705089560E089E20E9457A1A09A089516
:1025E000269A2E980895F6DFFBDF40E052EC61E07A
:1025F00070E08AE894E069DBEDE6F6E084918823F8
:1026000041F09091C00095FFFCCF8093C6003196B9
:10261000F5CF8091C00085FFFCCF8AE08093C60093
:102620008CEC96E0FC012491222341F03091C00013
:1026300035FFFCCF2093C6003196F5CF24B720FF9D
:1026400014C0E5E6F6E03491332341F04091C00038
:1026500045FFFCCF3093C6003196F5CF3091C000D6
:1026600035FFFCCF3AE03093C60021FF14C0E5E50A
:10267000F6E03491332341F04091C00045FFFCCF98
:102680003093C6003196F5CF3091C00035FFFCCFB6
:102690003AE03093C60022FF14C0E4E4F6E034913F
:1026A000332341F04091C00045FFFCCF3093C6007A
:1026B0003196F5CF3091C00035FFFCCF3AE0309332
:1026C000C60023FF14C0E4E3F6E03491332341F065
:1026D0004091C00045FFFCCF3093C6003196F5CF46
:1026E0003091C00035FFFCCF3AE03093C60025FFA3
:1026F00014C0E4E2F6E02491222341F03091C000BE
:1027000035FFFCCF2093C6003196F5CF2091C00055
:1027100025FFFCCF2AE02093C60014BEECE1F6E0D2
:102720002491222341F03091C00035FFFCCF20934B
:10273000C6003196F5CFE6E1F6E02491222341F080
:102740003091C00035FFFCCF2093C6003196F5CF05
:102750002091C00025FFFCCF2AE02093C600FC0199
:102760002491ECECF6E0222349F03091C00035FFD3
:10277000FCCF2093C60031962491F5CFE6E0F6E039
:102780002491222341F03091C00035FFFCCF2093EB
:10279000C6003196F5CFE1EFF5E02491222341F018
:1027A0003091C00035FFFCCF2093C6003196F5CFA5
:1027B000E5EEF5E02491222341F03091C00035FF91
:1027C000FCCF2093C6003196F5CFEAECF5E02491DA
:1027D000222341F03091C00035FFFCCF2093C6008A
:1027E0003196F5CF2091C00025FFFCCF2AE0209341
:1027F000C600EFEBF5E02491222341F03091C000B8
:1028000035FFFCCF2093C6003196F5CFE3EBF5E022
:102810002491222341F03091C00035FFFCCF20935A
:10282000C6003196F5CF2091C00025FFFCCF2AE0ED
:102830002093C600FC018491ECECF6E0882349F07B
:102840009091C00095FFFCCF8093C6003196849193
:10285000F5CFE4EAF5E08491882341F09091C0003F
:1028600095FFFCCF8093C6003196F5CFB0DD4AE0EE
:1028700050E0BC018AE894E03CDBEDE8F5E08491AF
:10288000882341F09091C00095FFFCCF8093C60053
:102890003196F5CF4AE050E060ED74E08AE894E0CC
:1028A00028DB8091C00085FFFCCF8AE08093C600C2
:1028B00010922D0510922E0510922F0510923005C2
:1028C00067D80E947B630E94BC4C0E94A3600E9458
:1028D0002A7EFFEF23ED80E3F15020408040E1F7B6
:1028E00000C000009FEFE3EDF0E39150E040F040C6
:1028F000E1F700C000000C94A87D80912105909123
:10290000220560E070E001960C94BFAA8091210539
:10291000909122054AE050E060E070E001960C944E
:1029200027AC682F772767FD709520912B05309194
:102930002C0540E6429FC001439F900D11248F5CFF
:102940009A4F0E94DAAD909322058093210521E0F1
:10295000892B09F420E0822F08950E947E9F6093C6
:102960001D0570931E0580931F0590932005E0912F
:102970002B05F0912C05E35DFA4F8081811114C085
:10298000E8E5F2E08491882341F09091C00095FF42
:10299000FCCF8093C6003196F5CF8091C00085FFB3
:1029A000FCCF8AE08093C60008958AE894E0DFD9DE
:1029B000EBE5F2E08491882341F09091C00095FF0F
:1029C000FCCF8093C6003196F5CF4091B60650916A
:1029D000B7066091B8067091B9064F5F5F4F6F4FB1
:1029E0007F4F2AE030E08AE894E060DA8091C0000E
:1029F00085FFFCCF8AE08093C600AFCF2F923F9235
:102A00004F925F926F927F928F929F92AF92BF92FE
:102A1000CF92DF92EF92FF920F931F93CF93DF93AA
:102A2000CDB7DEB76E970FB6F894DEBF0FBECDBF41
:102A300000E6902E04E010E080E5E82E84E0F82E19
:102A40009AE0892E26ECC22E24E0D22E77247394AD
:102A500080910B0590910C0520910D0530910E058C
:102A6000821B930B8F779927892B09F421C28091C0
:102A700027059091280504970CF01AC28AE894E083
:102A80005AD98093260520912405309125058A3056
:102A900061F08D3051F08A3321F490912305992310
:102AA00021F02F3531050CF428C12115310509F429
:102AB00042C18091290590912A05989E5001999EC6
:102AC000B00C1124F501E20FF31FEF5CFA4F1082F6
:102AD0002091230521110CC1FC01E35DFA4F108206
:102AE00095012F5C3A4F19016EE470E0C9010E9414
:102AF000DAAD0097E9F190932205809321058219C0
:102B000093098A0D9B1D4AE050E060E070E08E5C06
:102B10009A4F0E9427AC6093BA067093BB068093CD
:102B2000BC069093BD062091B6063091B706409141
:102B3000B8065091B9062F5F3F4F4F4F5F4FA0909F
:102B40002905B0902A05621773078407950709F4D1
:102B5000F5C09A9CC0019B9C900D11246FE675E016
:102B60008F5C9A4F0E949FAD892B09F0E7C074C11A
:102B70006AE270E0C1010E94DAAD892B09F443C01A
:102B8000E2EDF6E08491882341F09091C00095FF3A
:102B9000FCCF8093C6003196F5CFE9ECF4E0849148
:102BA000882341F09091C00095FFFCCF8093C60030
:102BB0003196F5CF4091B6065091B7066091B806B0
:102BC0007091B9062AE030E08AE894E06FD98091EC
:102BD000C00085FFFCCF8AE08093C60010922505D7
:102BE00010922405B8C28091BA069091BB06A091BC
:102BF000BC06B091BD068093B6069093B706A0932D
:102C0000B806B093B9068091290590912A05989E3F
:102C10005001999EB00C1124A5014F5C5A4F1A0126
:102C200067E470E0CA010E94DAAD009709F44BC076
:102C30009093220580932105821993098A0D9B1D8B
:102C400060E070E08E5C9A4F0E94BFAA0E94F6A6D8
:102C50006430710508F037C080910F0581111AC0EA
:102C60008091130781112FC0F6018491E6ECF4E006
:102C7000882349F09091C00095FFFCCF8093C60057
:102C800031968491F5CF8091C00085FFFCCF809272
:102C9000C60019C0F7018491E0E5F4E0882349F00B
:102CA0009091C00095FFFCCF8093C600319684912F
:102CB000F5CF8091C00085FFFCCF8092C60086E4EE
:102CC00094E00E94B97D8091290590912A05019692
:102CD000B8010E9445AA90932A0580932905809106
:102CE0002705909128050196909328058093270544
:102CF0001092250510922405ABCE8B3311F47092FF
:102D00002305909123059111A3CE4091290550915F
:102D10002A05B9016F5F7F4F7093250560932405E5
:102D2000949EF001959EF00D1124E20FF31FEF5CCD
:102D3000FA4F80838DCE109223050DC29A9C10010C
:102D40009B9C300C1124C1018F5C9A4F5C016AE29C
:102D500070E00E94DAAD009781F5E2EDF6E0849133
:102D6000882341F09091C00095FFFCCF8093C6006E
:102D70003196F5CFE3EFF4E08491882341F0909110
:102D8000C00095FFFCCF8093C6003196F5CF4091EF
:102D9000B6065091B7066091B8067091B9062AE060
:102DA00030E08AE894E082D88091C00085FFFCCFB3
:102DB0008AE08093C600F9DD11CF20E0612CF1019B
:102DC000E20FF11DEF5CFA4F30813A3219F02F5FBC
:102DD0006326F5CF90932205809321058A199B09DC
:102DE000820D931D60E070E08E5C9A4F0E94BFAA36
:102DF0000E94F6A6262D30E02617370709F4F3CEF9
:102E0000E2EDF6E08491882341F09091C00095FFB7
:102E1000FCCF8093C6003196F5CFEDE1F5E08491CB
:102E2000882341F09091C00095FFFCCF8093C600AD
:102E30003196F5CF4091B6065091B7066091B8062D
:102E40007091B9062AE030E08AE894E02FD88091AA
:102E5000C00085FFFCCFACCFE2EDF6E08491882383
:102E600041F09091C00095FFFCCF8093C600319651
:102E7000F5CFECE3F5E08491882341F09091C00018
:102E800095FFFCCF8093C6003196F5CF4091B606F2
:102E90005091B7066091B8067091B9062AE030E00B
:102EA0008AE894E003D88091C00085FFFCCF80CFF2
:102EB00080911507882309F44EC1809124059091D3
:102EC0002505892B09F047C1A8EE4A2EA3E05A2E0A
:102ED000612C712CBCE3CB2ED12CE12CF12C1FE109
:102EE000212E14E0312E8E010F5F1F4F40910A08F2
:102EF00050910B0860910C0870910D0880910208A8
:102F000090910308A0910408B0910508481759074B
:102F10006A077B0708F01FC180912705909128055B
:102F200004970CF018C18091EF079091F007A091E1
:102F3000F107B091F20780930A0890930B08A093D1
:102F40000C08B0930D0887EE97E00E949231482F4D
:102F5000809326058A30A1F04D3091F04A3321F458
:102F600020912305222361F020912405309125052D
:102F70002F3531052CF48F3FFFEF9F0709F0CBC0B1
:102F800040910A0850910B0860910C0870910D084F
:102F90008091020890910308A0910408B09105085F
:102FA000481759076A077B0708F47FC0E3E3F4E09A
:102FB0008491882341F09091C00095FFFCCF8093CD
:102FC000C6003196F5CF8091C00085FFFCCFFAE0B6
:102FD000F093C6000E947E9F6093110570931205C6
:102FE0008093130590931405809015059090160515
:102FF000A0901705B0901805681979098A099B09EE
:10300000A30192010E9458AA49015A01CA01B901BB
:10301000A70196010E9458AACA01B901A701960109
:103020000E9458AA7F936F93C501B40120E13EE04E
:1030300040E050E00E9458AA3F932F933F922F9276
:103040001F930F930E9409AEECECF6E084910FB64B
:10305000F894DEBF0FBECDBF882349F09091C00029
:1030600095FFFCCF8093C60031968491F5CFF8018F
:103070008191882339F09091C00095FFFCCF809317
:10308000C600F6CF8091C00085FFFCCF3AE03093B8
:10309000C600C8010E94AA7D83E197E00E94BC455A
:1030A00061E083E197E00E9459432091240530912B
:1030B00025052115310509F43ECE80912905909111
:1030C0002A0540E6489FF001499FF00D1124E20FC8
:1030D000F31FEF5CFA4F1082FC01E35DFA4F51E001
:1030E000508320912705309128052F5F3F4F309363
:1030F000280520932705019664E070E00E9445AA08
:1031000090932A0580932905109223051092250596
:1031100010922405EBCE4B3319F461E06093230544
:10312000409123054111E2CE4091290550912A0595
:10313000B9016F5F7F4F709325056093240560E6AA
:10314000649FF001659FF00D1124E20FF31FEF5C07
:10315000FA4F8083CBCE6E960FB6F894DEBF0FBECB
:10316000CDBFDF91CF911F910F91FF90EF90DF9036
:10317000CF90BF90AF909F908F907F906F905F9017
:103180004F903F902F9008958F929F92AF92BF9251
:10319000CF92DF92EF92FF920F931F93CF93DF9323
:1031A00038EDE32E33E0F32E0DEF16E0C2EDD6E05E
:1031B0004FE0C42E47E0D42EF70181917F01B1DBAF
:1031C000882311F19ADB4B015C01F60180818111AA
:1031D00003C06091B10601C061E070E080E090E062
:1031E0000E9429A7F80120813181428153810E94E8
:1031F0005CA99B01AC01C501B4010E94AEA5688326
:1032000079838A839B8309C0F80180819181A2819F
:10321000B38188839983AA83BB830C5F1F4F249655
:10322000FFEFCF1ADF0A8CEDE81683E0F80621F6EF
:1032300086E477DB8823D1F060DB6B017C0160934F
:10324000C2067093C3068093C4069093C50620E01F
:1032500030E0A9010E948AA8181644F4C0920A021C
:10326000D0920B02E0920C02F0920D02DF91CF910E
:103270001F910F91FF90EF90DF90CF90BF90AF9094
:103280009F908F90089580DF89E44BDB882351F075
:1032900034DB6093C6067093C7068093C80690938C
:1032A000C90608C01092C6061092C7061092C8063A
:1032B0001092C9068AE435DB882351F01EDB609347
:1032C000CA067093CB068093CC069093CD060895E2
:1032D0001092CA061092CB061092CC061092CD0620
:1032E0000895CF92DF92EF92FF92CF93DF93EC019C
:1032F000C090E506D090E606E090E706F090E8067C
:10330000A7019601688179818A819B810E9487A6A5
:1033100087FF04C0C882D982EA82FB82C090E90696
:10332000D090EA06E090EB06F090EC06A70196013B
:103330006C817D818E819F810E9487A687FF04C05A
:10334000CC82DD82EE82FF82C090ED06D090EE0648
:10335000E090EF06F090F006A70196016885798568
:103360008A859B850E9487A687FF04C0C886D98668
:10337000EA86FB86C0900F02D0901002E090110206
:10338000F0901202A7019601688179818A819B8160
:103390000E948AA8181624F4C882D982EA82FB8285
:1033A000C0901302D0901402E0901502F090160223
:1033B000A70196016C817D818E819F810E948AA8E0
:1033C000181624F4CC82DD82EE82FF82C0901702B0
:1033D000D0901802E0901902F0901A02A70196010D
:1033E000688579858A859B850E948AA8181624F4A9
:1033F000C886D986EA86FB86DF91CF91FF90EF9051
:10340000DF90CF900895CF92DF92EF92FF920F93CB
:103410001F9382ED96E065DF0E947E9F60931D05FD
:1034200070931E0580931F05909320052091D2066E
:103430003091D3064091D4065091D5066091FD0697
:103440007091FE068091FF06909100070E9487A66A
:10345000811179C02091D6063091D7064091D806C7
:103460005091D9066091010770910207809103077E
:10347000909104070E9487A6811165C020E030E08A
:1034800040E752E460910A0270910B0280910C02B5
:1034900090910D020E948EA654EEC52E56E0D52EB8
:1034A0007B018C012EED36E04AED56E066ED76E0CC
:1034B00082ED96E00E94224E8091D2069091D30632
:1034C000A091D406B091D5068093FD069093FE0698
:1034D000A093FF06B09300078091D6069091D7067F
:1034E000A091D806B091D906809301079093020766
:1034F000A0930307B09304078091DA069091DB064E
:10350000A091DC06B091DD06809305079093060735
:10351000A0930707B09308078091DE069091DF061D
:10352000A091E006B091E1068093090790930A0705
:10353000A0930B07B0930C071F910F91FF90EF9092
:10354000DF90CF90089560911D0270911E02882730
:1035500077FD8095982F0E9429A720910A0230912B
:103560000B0240910C0250910D020E945CA920E0D8
:1035700030E040E752E40E948EA620E030E048ECC4
:1035800052E488CFAF92BF92CF92DF92EF92FF9238
:103590000F931F93CF93DF93D82F2091CA063091BA
:1035A000CB064091CC065091CD066091C606709135
:1035B000C7068091C8069091C9060E9497A8C62F99
:1035C000172F082FF92E60911D0270911E02882777
:1035D00077FD8095982F0E9429A720910A023091AB
:1035E0000B0240910C0250910D020E945CA920E058
:1035F00030E040E752E40E948EA620E030E048EC44
:1036000052E40E948EA62091E4062F93DF93FF924E
:103610000F931F93CF935B016C0162E0E62E01E0F4
:1036200020E046EC56E062ED76E08DEF96E00E94F9
:10363000F3458091D2069091D306A091D406B09123
:10364000D5068093FD069093FE06A093FF06B093E7
:1036500000078091D6069091D706A091D806B09128
:10366000D9068093010790930207A0930307B093B4
:1036700004078091DA069091DB06A091DC06B091F8
:10368000DD068093050790930607A0930707B09384
:1036900008078091DE069091DF06A091E006B091C8
:1036A000E1068093090790930A07A0930B07B09354
:1036B0000C070E947E9F60931D0570931E058093EA
:1036C0001F05909320050F900F900F900F900F9073
:1036D0000F90DF91CF911F910F91FF90EF90DF90AE
:1036E000CF90BF90AF900895F8940E9406675F9ABC
:1036F0008A9A9FB7F89480910801816080930801AD
:103700009FBF479A60E08CE00E9457A1E2EDF6E08F
:103710008491882341F09091C00095FFFCCF809365
:10372000C6003196F5CFE9E3F2E08491882341F0B9
:103730009091C00095FFFCCF8093C6003196F5CFE5
:103740008091C00085FFFCCF8AE08093C60080E3B3
:1037500092E00E94C87DFFCFCF92DF92EF92FF925E
:103760000F931F930E947E9F0091190510911A05D7
:1037700020911B0530911C05C0901D05D0901E05A1
:10378000E0901F05F09020056C197D098E099F09B6
:10379000061717072807390728F4012B022B032BDC
:1037A00009F0A2DF8091060290910702A091080221
:1037B000B0910902892B8A2B8B2B09F10E947E9FE5
:1037C00000911D0510911E0520911F0530912005C7
:1037D000601B710B820B930B009106021091070284
:1037E00020910802309109020617170728073907A8
:1037F00030F49091270A8091260A981751F0909BF7
:10380000D0CF1F910F91FF90EF90DF90CF900C944D
:10381000054E5F9A8A9A9FB7F8948091080181605B
:10382000809308019FBF479AEACF0E94A97D2FEF9E
:1038300083ED90E3215080409040E1F700C000000C
:10384000F8940E9406675F9A8A9A9FB7F8948091CD
:1038500008018160809308019FBF479AE2EDF6E07E
:103860008491882341F09091C00095FFFCCF809314
:10387000C6003196F5CFFFCF0E94066780910F05F5
:10388000811138C081E080930F058091B606909138
:10389000B706A091B806B091B9068093B20690938E
:1038A000B306A093B406B093B506E2EDF6E08491BA
:1038B000882341F09091C00095FFFCCF8093C60013
:1038C0003196F5CFEAEBF1E08491882341F09091B5
:1038D000C00095FFFCCF8093C6003196F5CF809154
:1038E000C00085FFFCCF8AE08093C60080EB91E0AA
:1038F0000C94B97D089580910F050895CF93DF93BF
:10390000EC018091E4068093100584E50AD88111CA
:1039100002C080E065C00E947D140E94FBA66093F7
:1039200010056623B1F3ECECF6E08491882341F0B6
:103930009091C00095FFFCCF8093C6003196F5CFE3
:10394000C936D10599F034F4C836D105C9F5E7E296
:10395000F3E015C0CD36D10531F0CA3DD10581F572
:10396000E2EEF2E02AC0E9EFF2E01DC0E0E1F3E0B0
:1039700010C09091C00095FFFCCF8093C60081914C
:103980008111F7CF1DC09091C00095FFFCCF8093AF
:10399000C60081918111F7CF13C09091C00095FFAF
:1039A000FCCF8093C60081918111F7CF09C090911F
:1039B000C00095FFFCCF8093C60081918111F7CFA5
:1039C00040E050E0609110058AE894E00E94B00F5A
:1039D0008091C00085FFFCCF8AE08093C60081E023
:1039E000DF91CF9108953F924F925F926F927F92B5
:1039F0008F929F92AF92BF92CF92DF92EF92FF92FF
:103A00000F931F93CF93DF93CDB7DEB7A2970FB677
:103A1000F894DEBF0FBECDBF87E40E9491148823C7
:103A200009F40DC20E947D140E94F6A6643071054F
:103A3000B1F144F46230710511F144F577FF17C01C
:103A40000C94872A6A35710509F4A5C134F46C31E8
:103A5000710509F46BC00C94872A6B35710509F464
:103A60009EC16C35710509F49FC10C94872A809121
:103A70000F05811104C088DBC6DC0C94192C8091E1
:103A80000F05811103C0FFDB81E006C080910F05A7
:103A9000811105C0F8DB80E075DD0C94192C86E1FE
:103AA00094E00E94B97D80E50E949114882339F04A
:103AB0000E947D140E94FBA64B015C0103C0812C77
:103AC000912C540183E50E949114882361F00E9497
:103AD0007D1420E030E04AE754E40E945CA90E9493
:103AE000FBA64B015C010E9431610E947E9F6B012D
:103AF0007C01C80CD91CEA1CFB1C0E947E9F6093B1
:103B00001D0570931E0580931F05909320050E944C
:103B10007E9F6C157D058E059F0510F00C94872AFD
:103B20000E94576419DE0E94517EF1CF80910A02F3
:103B300090910B02A0910C02B0910D028093BE06F1
:103B40009093BF06A093C006B093C10680911D025A
:103B500090911E0290930E0780930D0784E690E0EB
:103B600090931E0280931D020E947E9F60931D050C
:103B700070931E0580931F059093200581E00E949D
:103B800068598091FD069091FE06A091FF06B091C4
:103B900000078093D2069093D306A093D406B093E7
:103BA000D5068091010790910207A0910307B0917B
:103BB00004078093D6069093D706A093D806B093B7
:103BC000D9068091050790910607A0910707B0914B
:103BD00008078093DA069093DB06A093DC06B09387
:103BE000DD068091090790910A07A0910B07B0911B
:103BF0000C078093DE069093DF06A093E006B09357
:103C0000E10610920A0210920B0210920C0210921E
:103C10000D0288E50E949114882311F090E00AC0FB
:103C200089E50E9491148111F9CF8AE50E949114CF
:103C300091E0982790930E0291110C948A2A88E5BE
:103C40000E94911481110C948A2A80910E02811194
:103C50000C94902A89E50E94911481110C94902A69
:103C600080910E0281110C94962A8AE50E9491148B
:103C700081110C94962A88E50E9491148823D1F032
:103C80000E948614672B682B692BA1F00E947D147B
:103C90002091F1063091F2064091F3065091F4061E
:103CA0000E94AEA56093FD067093FE068093FF060A
:103CB0009093000789E50E9491148823D1F00E9417
:103CC0008614672B682B692BA1F00E947D1420912C
:103CD000F5063091F6064091F7065091F8060E94DD
:103CE000AEA560930107709302078093030790933A
:103CF00004078AE50E9491148823D1F00E9486145B
:103D0000672B682B692BA1F00E947D142091F90686
:103D10003091FA064091FB065091FC060E94AEA538
:103D20006093050770930607809307079093080731
:103D300029E037E045E057E061E077E08DEF96E07D
:103D40000E94AC5780E00E9468598091BE06909115
:103D5000BF06A091C006B091C10680930A0290935D
:103D60000B02A0930C02B0930D0280910D0790916D
:103D70000E0790931E0280931D020E947E9F609307
:103D80001D0570931E0580931F05909320050E94CA
:103D900061590C94872A1092B1060C94872A81E00D
:103DA0008093B1060C94872A85E40E9491148111B6
:103DB00002C00E943161A8EDCA2EA3E0DA2EB1EF55
:103DC000EB2EB6E0FB2E0DEF16E0B12CD6018D9157
:103DD0006D010E949114882339F1B3E0BB120CC02D
:103DE0000E947D14F801608371838283938389E04C
:103DF00097E00E94515818C00E947D14D7012D9160
:103E00003D914D915C910E94AEA5F8016083718354
:103E10008283938329E037E045E057E061E077E073
:103E20008DEF96E00E94AC57B394F4E0EF0EF11CD6
:103E30000C5F1F4F24E0B212C9CF0C94872A8DE487
:103E40000E949114882311F40C94BC290E947D14C3
:103E50000E94F6A66A36710509F464C50CF0C3C069
:103E60006C31710509F42DC2BCF56531710509F499
:103E7000E5C1BCF46131710509F4A7C134F46230C5
:103E8000710508F448C10C94872A6231710509F460
:103E900086C56431710511F00C94872AEDEDF3E0CD
:103EA000ACC16831710509F4E8C154F4663171059B
:103EB00009F4CAC16731710509F4CCC10C94872A91
:103EC0006A31710509F4E9C10CF0F5C183E197E0AD
:103ED0000E946E3F0C94872A6235710509F458C51B
:103EE0000CF057C06A32710509F4DEC20CF044C010
:103EF0006E31710509F41AC26F31710511F00C941D
:103F0000872A0E947E9F609311057093120580930B
:103F10001305909314050091150510911605209135
:103F2000170530911805601B710B820B930B28EE5F
:103F300033E040E050E00E9458AACA01B9012CE3E6
:103F400030E040E050E00E9458AA7F936F933F9387
:103F50002F9380EC93E09F938F93CE0101969F93D4
:103F60008F930E9409AEECECF6E084910FB6F894C2
:103F7000DEBF0FBECDBF54C26035710509F405C563
:103F80006135710511F00C94872A269A2E9A0C94AB
:103F9000872A6535710509F434C554F46335710514
:103FA00009F4F9C46435710509F4F9C40C94872A3D
:103FB0006836710509F4A3C20CF0CCC26C357105EA
:103FC00011F00C94872A28ED33E038A32F8F09E5F0
:103FD0001FE099E6892E9FE0992E2DE1A22E2FE079
:103FE000B22E312C85C56C3C710509F4C1C7E4F5CE
:103FF0006737710509F48CC0CCF46237710509F498
:10400000ABC554F46B36710509F4BAC46D3671054D
:1040100009F45CC30C94872A6337710509F47AC5E7
:104020006537710509F484C50C94872A6C387105CD
:1040300009F481C25CF46837710509F469C669370F
:10404000710511F00C94872A81E063C6693C710503
:1040500009F452C76B3C710509F46EC76E3B7105DC
:1040600011F00C94872AAEC36E3231E0730711F45D
:104070000C945C292CF56C3D710511F40C944D28C1
:1040800084F46D3C710509F493C76E3C710511F021
:104090000C94872A08ED13E0A1EFEA2EA6E0FA2E91
:1040A000EDC76C3291E0790711F40C946B2814F091
:1040B0000C9499286D3D710509F4FEC70C94872A6C
:1040C000653FB1E07B0711F40C94A2297CF46F32B8
:1040D000F1E07F0711F40C946A296039714011F006
:1040E0000C94872A0E9431610C94872A603A33E04D
:1040F000730709F459C1673E83E0780711F40C9403
:10410000A529663F714011F00C94872A0C94A229CE
:10411000EDE4F3E007C685E094E00E94B97D80E518
:104120000E949114882339F00E947D140E94FBA6FE
:104130006B017C0103C0C12CD12C760183E50E9468
:104140009114882361F00E947D1420E030E04AE75A
:1041500054E40E945CA90E94FBA66B017C010E94B2
:1041600031610E947E9F60931D0570931E058093B0
:104170001F0590932005C114D104E104F104A9F0B6
:104180000E947E9F4B015C018C0C9D1CAE1CBF1CD1
:104190000E947E9F681579058A059B0580F40E9420
:1041A000127F81110CC00C949C2A0E94127F8111F5
:1041B00006C00E945764D0DA0E94517EF6CF86EF87
:1041C00093E00E94B97D0C94872A8DEE93E00E94C3
:1041D000B97D5F988A989FB7F894809108018E7F87
:1041E000809308019FBF47980C94872A9091C00044
:1041F00095FFFCCF8093C600319684918111F6CF54
:104200008091C00085FFFCCF8AE08093C60083E1E7
:1042100097E00E94493EEFECF3E08491882341F05F
:104220009091C00095FFFCCF8093C6003196F5CFEA
:104230008091C00085FFFCCF0C94842A83E197E035
:104240000E94A03E0C94872A83E197E00E94633F7E
:104250000C94872A00912105109122050C5F1F4FB5
:104260006AE270E0C8010E94DAAD009719F0FC0123
:104270003197108241E0B80153C083E197E00E947A
:10428000673F0E947E9F609315057093160580938B
:104290001705909318050C94872A80911607882398
:1042A00011F40C94872A83E50E94911481110C94D7
:1042B000A42A0C94872A83E197E00E9494420C94EC
:1042C000872A80912105909122056AE270E0049688
:1042D0000E94DAAD8C010097E1F020912B0530911E
:1042E0002C0540E6429FC001439F900D11246EE4CF
:1042F00070E08F5C9A4F0E94DAAD60E270E00E943D
:10430000DAAD01969093220580932105F80131974B
:10431000108260912105709122056C5F7F4F40E013
:1043200083E197E00E94733F0C94872A80911607DF
:10433000882311F40C94872A83E197E00E944D446E
:1043400080912105909122056AE270E004960E9416
:10435000DAAD8C010097E1F020912B0530912C050E
:1043600040E6429FC001439F900D11246EE470E02F
:104370008F5C9A4F0E94DAAD60E270E00E94DAAD85
:1043800001969093220580932105F80131971082C0
:1043900060912105709122056C5F7F4F83E197E06A
:1043A0000E945B410C94872A8091210590912205FF
:1043B0006AE270E005960E94DAAD8C010097E1F0A8
:1043C00020912B0530912C0540E6429FC001439F70
:1043D000900D11246EE470E08F5C9A4F0E94DAAD6C
:1043E00060E270E00E94DAAD01969093220580931E
:1043F0002105F80131971082609121057091220505
:104400006B5F7F4F83E197E00E9456410C94872AAF
:104410009091C00095FFFCCF8093C60031968491A7
:104420008111F6CFFE0131968191882339F0909168
:10443000C00095FFFCCF8093C600F6CF8091C000EE
:1044400085FFFCCF8AE08093C600CE0101960E94D2
:10445000AA7D8091F80E882311F40C94872A10927B
:10446000F80E0091E40610E0000F111F015E1F4ED0
:10447000F80160817181882777FD8095982F0E94CF
:1044800029A720913702309138024091390250918A
:104490003A020E948AA8181614F00C94872AD801B0
:1044A0001D921C920C94872A83E50E949114882304
:1044B00011F40C94872A0E947D146B017C0180E525
:1044C0000E949114882351F0C701B6010E94F6A6FC
:1044D0006F3F710509F010F40C94B42A6DE070E0A0
:1044E00020E0E22FEE0FFF0BE056FC4F8081918120
:1044F0008617970711F40C94872A2F5FF2CF88E66E
:1045000090E0FCD981110C94872A83E50E949114D4
:10451000882371F0009110050E947D1410E0000FB7
:10452000111F015E1F4E0E94F6A6F8017183608381
:104530000E941C64ECC783E50E949114882309F44F
:10454000E6C70E947D140E94F6A670931E10609329
:104550001D10DDC789E690E0D1D98111D8C7EAEBFB
:10456000F3E08491882341F09091C00095FFFCCF47
:104570008093C6003196F5CFE091100524E0E29FCC
:10458000F0011124E95EFF4E408151816281738107
:1045900021E030E08AE894E00E944F10E7EBF3E07E
:1045A0008491882341F09091C00095FFFCCF8093C7
:1045B000C6003196F5CFE0911005F0E0EE0FFF1F39
:1045C000E15EFF4E60817181882777FD8095982F8D
:1045D0000E9429A7AB01BC0121E030E08AE894E009
:1045E0000E944F10E3EBF3E08491882341F0909117
:1045F000C00095FFFCCF8093C6003196F5CF409167
:10460000111050911210609113107091141021E04C
:1046100030E08AE894E00E944F10E0EBF3E08491F0
:10462000882341F09091C00095FFFCCF8093C60095
:104630003196F5CF60911D1070911E10882777FD7F
:104640008095982F0E9429A7AB01BC0121E030E0A2
:104650008AE894E00E944F10ECEAF3E0849188230A
:1046600041F09091C00095FFFCCF8093C600319639
:10467000F5CF8091100590E00E9470634AE050E011
:10468000BC018AE894E00E94790FE7EAF3E08491A4
:10469000882341F09091C00095FFFCCF8093C60025
:1046A0003196F5CF8FEF9FEF0E9470634AE050E0A4
:1046B000BC018AE894E00E94790F8091C00085FFD8
:1046C000FCCF8AE08093C6000C94192C8DE690E014
:1046D00015D981111CC78CE993E00E94B97D109215
:1046E000F80E83E50E949114882371F00091100563
:1046F0000E947D1410E0000F111F015E1F4E0E94EA
:10470000F6A6D8016D937C9383E50E9491148823CB
:1047100051F00E947D1460933702709338028093A9
:10472000390290933A0282E40E949114882351F056
:104730000E947D1460933B0270933C0280933D0283
:1047400090933E0286E40E949114882369F00E94AF
:104750007D146093330270933402809335029093FA
:10476000360281E08093F80E0E941C640E947E9FB6
:104770004B015C010091100510E0F801EE0FFF1FE6
:10478000E15EFF4E60817181882777FD8095982FCB
:104790000E9429A72B013C01F801EE0FFF1FEE0F2D
:1047A000FF1FE95EFF4E80819181A281B3818F8FCF
:1047B00098A3A9A3BAA3CC24CA94DC2C76013AE02E
:1047C000332E3DC786E793E00E94B97D83E50E94C2
:1047D0009114882341F00E947D140E94F6A67093E4
:1047E0001E1060931D100E947E9F4B015C0103E729
:1047F00013E03FE6E32E33E0F32E4BE6C42E43E016
:10480000D42E5AE0752E60911D1070911E108827CD
:1048100077FD8095982F0E9429A720911110309143
:10482000121040911310509114100E948AA818166B
:104830000CF073C00E947E9F681979098A099B0950
:10484000693E73408105910508F460C0E091E4067B
:1048500024E0E29FF0011124E95EFF4E4081518186
:1048600062817381F8018491E3E7F3E0882349F0E2
:104870009091C00095FFFCCF8093C6003196849143
:10488000F5CF22E030E08AE894E00E944F10F70173
:104890008491EFE6F3E0882349F09091C00095FF02
:1048A000FCCF8093C60031968491F5CF6091E406E9
:1048B00070E04AE050E08AE894E00E94790FF60147
:1048C0008491EBE6F3E0882349F09091C00095FFD6
:1048D000FCCF8093C60031968491F5CF40911110A2
:1048E00050911210609113107091141021E030E07B
:1048F0008AE894E00E944F108091C00085FFFCCFB1
:104900007092C6000E947E9F4B015C010E9457641A
:104910000E94AC1B0E94517E76CF81E693E00E94FC
:10492000B97D5BC783E50E949114882311F10E9431
:104930007D1420E030E0A9010E9487A687FD0FC00A
:104940000E947D1420E030E04FE753E40E948AA8E3
:10495000181644F00E947D140E94F6A605C060E07F
:1049600070E002C06FEF70E07093E3066093E206C0
:10497000CEC58FEF90E09093E3068093E206C7C523
:104980001092E3061092E206C2C5269A2E98BFC581
:1049900010921207BCC581E080931207B8C583E569
:1049A0000E949114882399F00E947D1420E030E049
:1049B0004AE754E40E945CA90E94FBA660930602A9
:1049C000709307028093080290930902A0C588E5BE
:1049D0000E94911481110CC789E50E9491148111E4
:1049E00007C78AE50E949114811102C785E40E94DD
:1049F00091148111FDC60E943161479A0E9499610C
:104A000086C583E50E9491140E947D1420E030E069
:104A10004AE754E40E945CA90E94FBA66093190532
:104A200070931A0580931B0590931C0570C5B3E025
:104A30003B1268C00E947D146B017C0120E030E0D5
:104A400040EA51E40E9487A687FF3FC0A701960174
:104A5000F80160817181828193810E948EA62B0171
:104A60003C019B01AC016091310F7091320F80913C
:104A7000330F9091340F0E945CA96093310F7093B3
:104A8000320F8093330F9093340FA3019201D4011E
:104A90006D917D918D919C910E945CA9F401608340
:104AA000718382839383D5016D917D918D919C91CA
:104AB0000E9427A7A30192010E945CA90E94FBA665
:104AC000F5016083718382839383D801CD92DD9257
:104AD000ED92FC92139733940C5F1F4FF4E08F0E0E
:104AE000911C24E0A20EB11C34E0331609F40FC56A
:104AF000AF8DB8A18D91B8A3AF8F0E949114882378
:104B000051F395CF0E947D14F801608371838283F5
:104B10009383E1CFE6ECF2E08491882309F4F7C4B3
:104B20009091C00095FFFCCF8093C6003196F4CFE2
:104B300000912105109122050B5F1F4F6AE270E082
:104B4000C8010E94DAAD009719F0FC01319710827C
:104B5000C8010E94AA7DDBC4E3ECF2E084918823C3
:104B600041F09091C00095FFFCCF8093C600319634
:104B7000F5CF4091FD065091FE066091FF067091C1
:104B8000000722E030E08AE894E00E944F10E0EC59
:104B9000F2E08491882341F09091C00095FFFCCF12
:104BA0008093C6003196F5CF4091010750910207DE
:104BB000609103077091040722E030E08AE894E0F6
:104BC0000E944F10EDEBF2E08491882341F0909128
:104BD000C00095FFFCCF8093C6003196F5CF409181
:104BE000050750910607609107077091080722E0BA
:104BF00030E08AE894E00E944F10EAEBF2E0849102
:104C0000882341F09091C00095FFFCCF8093C600AF
:104C10003196F5CF4091090750910A0760910B0733
:104C200070910C0722E030E08AE894E00E944F1077
:104C3000EFEAF2E08491882341F09091C00095FF63
:104C4000FCCF8093C6003196F5CF0E948B610E9405
:104C500029A72091590F30915A0F40915B0F509125
:104C60005C0F0E948EA6AB01BC0122E030E08AE816
:104C700094E00E944F10ECEAF2E08491882341F026
:104C80009091C00095FFFCCF8093C6003196F5CF80
:104C900081E00E948B610E9429A720915D0F3091D5
:104CA0005E0F40915F0F5091600F0E948EA6AB0186
:104CB000BC0122E030E08AE894E00E944F10E9EA6B
:104CC000F2E08491882341F09091C00095FFFCCFE1
:104CD0008093C6003196F5CF82E00E948B610E94DE
:104CE00029A72091610F3091620F4091630F50917D
:104CF000640F0E948EA6AB01BC0122E030E08AE87E
:104D000094E00E944F108091C00085FFFCCFFCC34F
:104D100080E00E946859FBC39091C00095FFFCCFD2
:104D20008093C60081918111F7CF8091C00085FFEB
:104D3000FCCF8AE08093C600E1EAF2E08491882308
:104D400041F09091C00095FFFCCF8093C600319652
:104D5000F5CF659903C0EEE3F3E009C0E8E4F3E0C2
:104D600006C09091C00095FFFCCF8093C600819152
:104D70008111F7CF8091C00085FFFCCF8AE080933E
:104D8000C600E9E9F2E08491882341F09091C000E7
:104D900095FFFCCF8093C6003196F5CF649903C090
:104DA000EEE3F3E009C0E8E4F3E006C09091C00050
:104DB00095FFFCCF8093C60081918111F7CF809140
:104DC000C00085FFFCCF8AE08093C600E1E9F2E0F5
:104DD0008491882341F09091C00095FFFCCF80938F
:104DE000C6003196F5CF8091030181FD03C0EEE34B
:104DF000F3E009C0E8E4F3E006C09091C00095FF3D
:104E0000FCCF8093C60081918111F7CF8091C000C3
:104E100085FFFCCF8AE08093C600E9E8F2E0849148
:104E2000882341F09091C00095FFFCCF8093C6008D
:104E30003196F5CF8091030180FD03C0EEE3F3E0EE
:104E400009C0E8E4F3E006C09091C00095FFFCCFF4
:104E50008093C60081918111F7CF8091C00085FFBA
:104E6000FCCF8AE08093C600E1E8F2E084918823D9
:104E700041F09091C00095FFFCCF8093C600319621
:104E8000F5CF4B9903C0EEE3F3E009C0E8E4F3E0AB
:104E900006C09091C00095FFFCCF8093C600819121
:104EA0008111F7CF8091C00085FFFCCF8AE080930D
:104EB000C600E9E7F2E08491882341F09091C000B8
:104EC00095FFFCCF8093C6003196F5CF4A9903C079
:104ED000EEE3F3E009C0E8E4F3E006C09091C0001F
:104EE00095FFFCCF8093C60081918111F7CF80910F
:104EF000C00085FFFCCF08C308ED13E089E4E82E6D
:104F00008FE0F82ED8018D918D010E949114882395
:104F100049F00E947D140E94FBA6F7016083718313
:104F200082839383F4E0EF0EF11C23E00C3D120723
:104F300049F70E947E58EBC208ED13E0B9E6EB2E6C
:104F4000BFE0FB2ED8018D918D010E949114882322
:104F500039F00E947D14F70160837183828393830B
:104F6000F4E0EF0EF11C23E00C3D120759F7CFC21D
:104F700083E50E949114882351F00E947D14609370
:104F8000410F7093420F8093430F9093440F84E539
:104F90000E949114882309F4BAC20E947D14609380
:104FA0003D0F70933E0F80933F0F9093400FAFC221
:104FB00083E50E949114882351F00E947D14609330
:104FC000450F7093460F8093470F9093480F84E5E9
:104FD0000E949114882351F00E947D1460932D0F3C
:104FE00070932E0F80932F0F9093300F82E40E94C6
:104FF0009114882361F00E947D140E94FBA66093A7
:10500000790F70937A0F80937B0F90937C0F88E5D4
:105010000E949114882351F00E947D146093390FEF
:1050200070933A0F80933B0F90933C0F8AE50E9458
:105030009114882351F00E947D146093350F709372
:10504000360F8093370F9093380F85E40E949114A8
:10505000882309F45CC20E947D146093310F709321
:10506000320F8093330F9093340F51C2F4E0EF0E60
:10507000F11C23E00B3D120709F449C2D8018D91C0
:105080008D010E949114882389F30E947D14F701F9
:105090006083718382839383E9CF83E50E949114B7
:1050A000882309F434C20E947D140E94F6A67093EE
:1050B0001E0260931D022BC283E50E949114882377
:1050C00009F425C20E947D140E94F6A670931C026A
:1050D00060931B021CC283E50E949114882331F067
:1050E0000E947D140E94F6A68B0102C000E911E027
:1050F00080E50E949114882331F00E947D140E9463
:10510000F6A67B0104C0F8EEEF2EF3E0FF2E20E0C0
:1051100030E0A901B80185E20E940BA2B7018827FF
:1051200077FD8095982F0E94AD9F85E20E942CA567
:10513000EEC180E50E949114882351F00E947D14F5
:1051400060935502709356028093570290935802D1
:1051500089E40E949114882361F00E947D140E94CA
:10516000586D609351027093520280935302909352
:10517000540284E40E949114882361F00E947D14FB
:105180000E94646D60934D0270934E0280934F02B3
:105190009093500283E40E949114882351F00E945E
:1051A0007D146093490270934A0280934B0290935E
:1051B0004C020E945963E8E6F3E08191882339F0BC
:1051C0009091C00095FFFCCF8093C600F6CFEBE630
:1051D000F3E08191882339F09091C00095FFFCCFD6
:1051E0008093C600F6CF40915502509156026091CF
:1051F00057027091580222E030E08AE894E00E9461
:105200004F10EFE6F3E08191882339F09091C000D0
:1052100095FFFCCF8093C600F6CF6091510270914C
:10522000520280915302909154020E945E6DAB0134
:10523000BC0122E030E08AE894E00E944F10E3E7EE
:10524000F3E08191882339F09091C00095FFFCCF65
:105250008093C600F6CF60914D0270914E0280910E
:105260004F02909150020E946A6DAB01BC0122E096
:1052700030E08AE894E00E944F10E7E7F3E0819184
:10528000882339F09091C00095FFFCCF8093C60031
:10529000F6CF4091490250914A0260914B027091C1
:1052A0004C0222E030E08AE894E00E944F108091A6
:1052B000C00085FFFCCF28C183E50E94911488239C
:1052C00019F00E947D1403C060E070E0CB010E94E1
:1052D00075581DC185E40E949114882341F00E94F5
:1052E0007D140E94F6A68B0177FD0AC002C000E083
:1052F00010E0C12CD12CE6E1EE2EE3E4FE2E06C038
:10530000C12CD12C7CE8E72E72E4F72E83E50E94B5
:105310009114882321F00E947D146B017C0183E4A9
:105320000E949114882331F00E947D140E94F6A6F9
:105330009B0102C025E030E0A801C701B6010E9430
:105340002667E5C00E94C80CE2C010920F050E94BB
:10535000CE7D8091B2069091B306A091B406B09133
:10536000B5068093B6069093B706A093B806B0939F
:10537000B9060E94D514CBC084E50E9491148823FD
:1053800009F481C00E947D140E94FBA66093100561
:10539000662391F1ECECF6E08491882341F0909142
:1053A000C00095FFFCCF8093C6003196F5CFEBE7A8
:1053B000F3E08191882339F09091C00095FFFCCFF4
:1053C0008093C600F6CF40E050E0609110058AE877
:1053D00094E00E94B00FEDE7F3E08191882339F06B
:1053E0009091C00095FFFCCF8093C600F6CF8091CE
:1053F000C00085FFFCCF88C086E40E9491148823FA
:10540000D9F00E947D146B017C016093C2067093F9
:10541000C3068093C4069093C50620E030E0A9013E
:105420000E948AA8181644F4C0920A02D0920B0275
:10543000E0920C02F0920D02ECECF6E084918823ED
:1054400041F09091C00095FFFCCF8093C60031964B
:10545000F5CFEEE8F3E08191882339F09091C00018
:1054600095FFFCCF8093C600F6CF6091E40670E014
:105470004AE050E08AE894E00E94790F8091C000F1
:1054800085FFFCCF41C0ECECF6E08491882341F02D
:105490009091C00095FFFCCF8093C6003196F5CF68
:1054A000E6E6F2E08491882341F09091C00095FFF8
:1054B000FCCF8093C6003196F5CF80912B0590915B
:1054C0002C0520E6289FF001299FF00D1124EF5CA8
:1054D000FA4F8191882339F09091C00095FFFCCF5D
:1054E0008093C600F6CFE4E6F2E08491882341F091
:1054F0009091C00095FFFCCF8093C6003196F5CF08
:105500008091C00085FFFCCF8AE08093C6000E9496
:10551000AD148FC180E090E00E9456100C94251EBF
:1055200081E090E00E9456100C94301E82E090E0E2
:105530000E9456100C943B1E0E9457640E94AC1BA4
:105540000E94517E0C94C8200E948614AB01BC01BD
:1055500040930A0850930B0860930C0870930D0851
:1055600087EE97E0A8D7D3CF0E947D140E94F6A6BD
:105570000C9470220E947E9F8B019C01C701B60192
:10558000605F784D8F4F9F4F601B710B820B930BA9
:1055900028EE33E040E050E00E9458AABA01A90189
:1055A0002AE030E08AE894E00E94A50F8091C000D4
:1055B00085FFFCCF3092C6000E947E9F4B015C01AC
:1055C0000E9457640E94AC1B0E94517EFFEFCF16D1
:1055D000DF06EF06FF0609F0ABC02F8D38A149A109
:1055E0005AA1C301B2010E948AA8E0911005F0E01F
:1055F0008F01000F111F000F111F095E1F4EEE0FCC
:10560000FF1FE15EFF4E6081718118160CF078C0BB
:10561000882777FD8095982F0E9429A720E030E009
:1056200040E85FE30E94ADA59B01AC01D8016D91FC
:105630007D918D919C910E948AA887FFB5C00E94A0
:105640007E9F681979098A099B09693E7340810523
:10565000910508F4B5CFE9E9F3E08491882341F09E
:105660009091C00095FFFCCF8093C6003196F5CF96
:10567000E091100524E0E29FF0011124E95EFF4E65
:10568000408151816281738121E030E08AE894E0B9
:105690000E944F10E5E9F3E08491882341F0909156
:1056A000C00095FFFCCF8093C6003196F5CF609186
:1056B000100570E04AE050E08AE894E00E94790F1B
:1056C000E1E9F3E08491882341F09091C00095FFD7
:1056D000FCCF8093C6003196F5CFF7FE4BCFE6E6C0
:1056E000F3E006C09091C00095FFFCCF8093C60008
:1056F00081918111F7CF8091C00085FFFCCF5ACFF7
:10570000882777FD8095982F0E9429A720E030E018
:1057100040E85FE30E94AEA59B01AC01F801608107
:105720007181828193810E9487A61816ECF587CF3C
:10573000F7FC2FC0E0911005F0E08F01000F111F62
:10574000000F111F095E1F4EEE0FFF1FE15EFF4E9F
:1057500060817181882777FD8095982F0E9429A705
:105760009B01AC01D8016D917D918D919C910E941E
:10577000ADA50E94F6A697FF07C0909580957095FD
:1057800061957F4F8F4F9F4F643071058105910563
:105790005CF4F7FC14C00E947E9F6C197D09603197
:1057A000774208F44CCF0BC00E947E9F6B017C01B6
:1057B0006F3F3FEF73078307930759F740CF83E8A5
:1057C00093E00E94B97D0E947E9F609315057093BF
:1057D000160580931705909318050E947E9F60938D
:1057E0001D0570931E0580931F05909320058FCE95
:1057F0000E94316188E50E94911481115F9A89E5C8
:105800000E94911481118A9A8AE50E94911488233A
:1058100041F09FB7F894809108018160809308015E
:105820009FBF85E40E949114882309F470CE479AA3
:105830006ECEA2960FB6F894DEBF0FBECDBFDF913D
:10584000CF911F910F91FF90EF90DF90CF90BF907D
:10585000AF909F908F907F906F905F904F903F9010
:105860000895CF93DF9380912705909128050397A2
:1058700014F40E94FE1460E083E197E00E94594313
:105880008091270590912805892B09F463C08091A8
:1058900013078823E1F080912B0590912C0520E6D9
:1058A000289FE001299FD00D1124CF5CDA4F69E8D1
:1058B00075E0CE010E949FAD892BF1F4BE0183E11A
:1058C00097E00E94E94280911407882319F00E9412
:1058D000F31C2AC0E6E8F5E08491882341F090911A
:1058E000C00095FFFCCF8093C6003196F5CF809124
:1058F000C00085FFFCCF15C083E197E00E944D44B6
:10590000E4E7F5E08491882341F09091C00095FF91
:10591000FCCF8093C6003196F5CF8091C00085FF03
:10592000FCCF8AE08093C6008091270590912805DE
:105930000197909328058093270580912B059091DE
:105940002C05019664E070E00E9445AA90932C0516
:1059500080932B050E9457640E94AC1B0E94C6587E
:10596000DF91CF910C94517E20EE33E0FC01318326
:1059700020832781222311F0049680C6089583E1B5
:1059800097E00C946C3C83EE97E0EEDF81EA97E0C1
:10599000EBDF82E897E0E8DF83E697E0E5DF82E48B
:1059A00097E0E2CF8FEF8EBD0DB407FEFDCF8EB531
:1059B00008958EBD0DB407FEFDCF089561E0FC0192
:1059C00080810C9490A1FC012281322F306A36959F
:1059D0003CBD20FD06C031E0263009F430E0232F25
:1059E00001C020E02DBD60E0FC0180810C9490A1FD
:1059F000CF92DF92EF92FF920F931F93CF93DF939B
:105A0000EC018B017A010E947E9F6B01CBDF8B83BF
:105A10008F3F49F40E947E9F6C197D096D32714061
:105A2000A8F381E103C08E3F31F08FE08983CE017E
:105A3000C5DF80E024C0E114F104E1F081E0E81A60
:105A4000F1088FEF8EBDF8012FEFCF01801B910B76
:105A50008E159F0538F40DB407FEFDCF8EB58193EA
:105A60002EBDF3CF0DB407FEFDCF8EB5F801EE0DC0
:105A7000FF1D808397DF96DFCE01A0DF81E0DF91FD
:105A8000CF911F910F91FF90EF90DF90CF900895ED
:105A90000F931F93CF93DF93EB010E947E9F8B01A7
:105AA00081DF8F3F49F00E947E9F601B710B6C1756
:105AB0007D07B0F380E001C081E0DF91CF911F91BD
:105AC0000F910895CF92DF92FF920F931F93CF9380
:105AD000DF9300D01F92CDB7DEB76C01F62E29837D
